:020000040800F2
:100000000050002001480008DD420008DF420008DF
:10001000E1420008E3420008E54200080000000059
:10002000000000000000000000000000E74200089F
:10003000E942000800000000EB420008ED42000821
:10004000494800084948000849480008494800084C
:10005000494800084948000849480008494800083C
:10006000494800084948000849480008FD4200087E
:10007000494800084948000849480008494800081C
:10008000494800084948000849480008494800080C
:100090000943000849480008494800084948000841
:1000A00049480008494800084948000849480008EC
:1000B0001543000849480008494800084948000815
:1000C00049480008494800084948000849480008CC
:1000D00049480008494800084948000849480008BC
:1000E0004948000849480008494800080000000045
:1000F0000000000000000000000000000000000000
:0C01000000000000000000005FF808F1A3
:10010C0010B5054C237833B9044B13B10448AFF345
:10011C0000800123237010BD780300200000000034
:10012C009C52000808B5034B1BB103490348AFF3BD
:10013C00008008BD000000007C0300209C520008D9
:10014C00034613F8012B002AFBD1181A013870470B
:10015C00D0400B1CD1409C46203AD340184352420D
:10016C00634693401843704780F0004002E000BFA4
:10017C0081F0004142001FBF5FEA410392EA030F86
:10018C007FEA226C7FEA236C6AD04FEA1262D2EBD0
:10019C001363C1BFD218414048404140B8BF5B42D5
:1001AC00192B88BF704710F0004F40F4000020F06E
:1001BC007F4018BF404211F0004F41F4000121F084
:1001CC007F4118BF494292EA030F3FD0A2F10102CE
:1001DC0041FA03FC10EB0C00C3F1200301FA03F10C
:1001EC0000F0004302D5494260EB4000B0F5000F2F
:1001FC0013D3B0F1807F06D340084FEA310102F1EE
:10020C000102FE2A51D2B1F1004F40EBC25008BF9F
:10021C0020F0010040EA03007047490040EB000069
:10022C0010F4000FA2F10102EDD1B0FA80FCACF198
:10023C00080CB2EB0C0200FA0CF0AABF00EBC25097
:10024C0052421843BCBFD0401843704792F0000F85
:10025C0081F4000106BF80F400000132013BB5E7D8
:10026C004FEA41037FEA226C18BF7FEA236C21D04E
:10027C0092EA030F04D092F0000F08BF08467047B3
:10028C0090EA010F1CBF0020704712F07F4F04D181
:10029C00400028BF40F00040704712F100723CBF94
:1002AC0000F50000704700F0004343F0FE4040F4BE
:1002BC00000070477FEA226216BF08467FEA23637C
:1002CC000146420206BF5FEA412390EA010F40F467
:1002DC00800070474FF0000304E000BF10F00043B3
:1002EC0048BF40425FEA000C08BF704743F096439A
:1002FC0001464FF000001CE050EA010208BF7047B5
:10030C004FF000030AE000BF50EA010208BF70473B
:10031C0011F0004302D5404261EB41015FEA010C50
:10032C0002BF84460146002043F0B64308BFA3F148
:10033C008053A3F50003BCFA8CF2083AA3EBC2532A
:10034C0010DB01FA02FC634400FA02FCC2F1200249
:10035C00BCF1004F20FA02F243EB020008BF20F080
:10036C000100704702F1200201FA02FCC2F12002E6
:10037C0050EA4C0021FA02F243EB020008BF20EADB
:10038C00DC7070474FF0FF0C1CEAD0521EBF1CEA09
:10039C00D15392EA0C0F93EA0C0F6FD01A4480EAF7
:1003AC00010C400218BF5FEA41211ED04FF00063E0
:1003BC0043EA501043EA5111A0FB01310CF000400C
:1003CC00B1F5000F3EBF490041EAD3715B0040EA32
:1003DC00010062F17F02FD2A1DD8B3F1004F40EB02
:1003EC00C25008BF20F00100704790F0000F0CF0D5
:1003FC00004C08BF49024CEA502040EA51207F3A99
:10040C00C2BFD2F1FF0340EAC250704740F4000073
:10041C004FF00003013A5DDC12F1190FDCBF00F064
:10042C0000407047C2F10002410021FA02F1C2F112
:10043C00200200FA02FC5FEA310040F1000053EAAE
:10044C004C0308BF20EADC70704792F0000F00F0FC
:10045C00004C02BF400010F4000F013AF9D040EA02
:10046C000C0093F0000F01F0004C02BF490011F496
:10047C00000F013BF9D041EA0C018FE70CEAD15394
:10048C0092EA0C0F18BF93EA0C0F0AD030F0004C14
:10049C0018BF31F0004CD8D180EA010000F00040C8
:1004AC00704790F0000F17BF90F0004F084691F086
:1004BC00000F91F0004F14D092EA0C0F01D14202C0
:1004CC000FD193EA0C0F03D14B0218BF084608D189
:1004DC0080EA010000F0004040F0FE4040F40000D3
:1004EC00704740F0FE4040F4400070474FF0FF0C66
:1004FC001CEAD0521EBF1CEAD15392EA0C0F93EAAD
:10050C000C0F69D0A2EB030280EA010C49024FEAFE
:10051C00402037D04FF0805343EA111143EA1013B7
:10052C000CF000408B4238BF5B0042F17D024FF46F
:10053C00000C8B4224BF5B1A40EA0C00B3EB510F4A
:10054C0024BFA3EB510340EA5C00B3EB910F24BF33
:10055C00A3EB910340EA9C00B3EBD10F24BFA3EBB8
:10056C00D10340EADC001B0118BF5FEA1C1CE0D180
:10057C00FD2A3FF650AF8B4240EBC25008BF20F033
:10058C00010070470CF0004C4CEA50207F32C2BF87
:10059C00D2F1FF0340EAC250704740F400004FF024
:1005AC000003013A37E792F0000F00F0004C02BF55
:1005BC00400010F4000F013AF9D040EA0C0093F01F
:1005CC00000F01F0004C02BF490011F4000F013B79
:1005DC00F9D041EA0C0195E70CEAD15392EA0C0FE1
:1005EC0008D142027FF47DAF93EA0C0F7FF470AF19
:1005FC00084676E793EA0C0F04D14B023FF44CAF5C
:10060C0008466EE730F0004C18BF31F0004CCAD1F0
:10061C0030F000427FF45CAF31F000437FF43CAF2C
:10062C005FE700BF42000ED2B2F1FE4F0BD34FF08A
:10063C009E03B3EB126209D44FEA002343F000434C
:10064C0023FA02F070474FF00000704712F1610F6F
:10065C0001D1420202D14FF0FF3070474FF0000041
:10066C00704700BF38B50E4B054618784FF47A73B7
:10067C00B3FBF0F30B4A1068B0FBF3F000F0B6FAE2
:10068C00044658B90F2D09D8024629464FF0FF30C1
:10069C0000F06AFA044B20461D6038BD012038BDBD
:1006AC00000000202001002004000020074A08B5AB
:1006BC001368032043F01003136000F043FA00208A
:1006CC00FFF7D0FF03F036FD002008BD00200240EC
:1006DC00034A044B11681B780B441360704700BF2E
:1006EC00DC06002000000020014B1868704700BF9A
:1006FC00DC0600207047436A10B59A6A12F0500F5E
:10070C001BD19A6A42F400729A621A68926802F4D7
:10071C006022B2F5602F0CD11A7B52B99A6A22F47E
:10072C0080729A629A6AD2045EBF9A6A42F001029F
:10073C009A621846FFF7DEFF10BD1B6ABDE8104039
:10074C001B6B1847704708B5406AFFF7FBFF08BDE5
:10075C007047406A08B5836A43F040038362C36AFA
:10076C0043F00403C362FFF7F3FF08BD002373B526
:10077C00019390F82430012B74D001234D6880F83C
:10078C002430062D02684FEA85030C6825D82B44CB
:10079C001F25566B053B9D4026EA050504FA03F31D
:1007AC002B435363092C4FEA44038D682FD907263A
:1007BC002344D1681E3B9E4021EA060105FA03F34F
:1007CC000B43D360A4F11003012B2BD9002300227F
:1007DC0080F82420184602B070BD0C2D0BD82B4489
:1007EC001F25166B233B9D4026EA050504FA03F3EF
:1007FC002B431363D6E72B441F25D66A413B9D4000
:10080C0026EA050504FA03F32B43D362CAE707264D
:10081C00116923449E4021EA060105FA03F30B43B8
:10082C001361CFE7104B9A4216D193681B02CDD4BB
:10083C009368102C43F400039360C7D10B4B0C4A04
:10084C001B68B3FBF2F20A2353430193019B002B69
:10085C00BCD0019B013BF8E7836A43F02003836221
:10086C000123B4E70223B5E7002401402001002056
:10087C0040420F00002373B50193036804469A6845
:10088C00D20702D5002002B070BD9A6842F0010276
:10089C009A60124B124A1B68B3FBF2F30193019B53
:1008AC00C3B9FFF721FF064623689D6815F00105C3
:1008BC00E8D1FFF719FF801B0228F5D9A36A84F849
:1008CC00245043F01003A362E36A012043F00103B8
:1008DC00E362D8E7019B013BE0E700BF2001002069
:1008EC0040420F002DE9D8419046404B0268044627
:1008FC009A420F4602D03E498A4203D15B6813F4F8
:10090C00702F6ED194F82430012B6CD0012320462B
:10091C0084F82430FFF7AEFF064600285DD1A06AAC
:10092C00216820F47060324B20F0010040F480709C
:10093C009942A06204D12D4A536813F4702F3ED112
:10094C00A36A23F48013A3624B685A0505D5A36AE6
:10095C0023F4405343F48053A362A36A206A13F434
:10096C00805318BFE36A3A4618BF23F00603E362CC
:10097C00002384F824301F4B4C3183621E4BC3621E
:10098C001E4B03636FF0020341F84C3C51F8443C9E
:10099C0043F4807341F8443C434600F06DF92368FE
:1009AC009A6802F46022B2F5602F9A680CBF42F488
:1009BC00A00242F480129A603046BDE8D881A36A46
:1009CC0043F48013A36253685B0541BFA06A20F413
:1009DC00405040F48050A062BFE7002384F82430DC
:1009EC00EAE70126E8E70226E6E700BF002401401B
:1009FC000028014003070008530700085F070008A0
:100A0C0038B5036804469A68D20701D4002038BD73
:100A1C009A6822F001029A60FFF766FE0546236889
:100A2C009B68DB07F2D5FFF75FFE401B0228F6D967
:100A3C00A36A012043F01003A362E36A43F00103AD
:100A4C00E36238BD70B50446002871D0836A23B9BF
:100A5C00C36280F8243003F08FFB2046FFF7D0FFF1
:100A6C00A36A13F0100FA36A64D1002862D1E16964
:100A7C0023F48853626823F0020343F002030A4311
:100A8C00A168A362237BB1F5807F42EA430238D090
:100A9C00012914BF06464FF48076257D012D07D120
:100AAC00002B30D1A369013B46EA433545F400667F
:100ABC002368B1F5807F5D6825F4694545EA060534
:100ACC005D609E681D4D05EA060545EA02059D60C0
:100ADC0001D0012920D1216901390905DD6A25F4EC
:100AEC0070052943D9629968154B0B409A4215D170
:100AFC000023E362A36A23F0030343F00103A36220
:100B0C0070BD0E46C9E7A36A43F02003A362E36AF3
:100B1C0043F00103E362CBE70021DFE7A36A23F094
:100B2C00120343F01003A362E36A43F00103E36290
:100B3C00012070BD43F01003A362F9E7FDF7E1FF5C
:100B4C00FE0E1FFF074A0002D36800F4E06023F496
:100B5C00E0631B041B0C43F0BF6343F400330343FB
:100B6C00D360704700ED00E0174B30B5DC68C4F380
:100B7C000224C4F10703251D042B28BF0423062DD2
:100B8C004FF0010598BF002405FA03F303F1FF337E
:100B9C0088BF033C1940A14005FA04F4013C2240F3
:100BAC00002842EA01024FEA0212A9BF00F160409C
:100BBC00064BD2B200F56140BBBF00F00F00D2B2C1
:100BCC0080F800231A5430BD00ED00E014ED00E075
:100BDC00002808DB0123420900F01F0003FA00F093
:100BEC00014B43F82200704700E100E00138B0F1FE
:100BFC00807F0AD2F021064B064A586082F82310F7
:100C0C000020072298601A6070470120704700BFCF
:100C1C0010E000E000ED00E010B530B314220168E4
:100C2C00134B84680B44B3FBF2F39B000364114B2E
:100C3C000A68C363436822F47F522343C46822F0DA
:100C4C0030022343046923434469234384692343C7
:100C5C00C469234313430B600122002380F8212035
:100C6C00836380F82030184610BD012010BD00BFF2
:100C7C00F8FFFDBF00000240F0B590F82040012CB9
:100C8C0035D0012490F8215080F82040A5424FF037
:100C9C0000064FF0020428D180F8214004688663D6
:100CAC002668076C26F001062660C66BBD40756091
:100CBC00636043680568102BC36A0BBFA260A16018
:100CCC00E160E2604BB1236843F00E0323602B68B4
:100CDC00002043F001032B60F0BD236823F00403D4
:100CEC002360236843F00A03F0E780F820600220B9
:100CFC00F0BD000070B40425C66B026C3468036848
:100D0C0095402542196832D04D0730D51A689606A1
:100D1C005EBF1A6822F004021A603E4A934219D050
:100D2C001432934218D01432934217D01432934297
:100D3C0017D01432934217D0143293420CBF4FF495
:100D4C0080034FF08063344A5360C36A002B5ED03B
:100D5C0070BC18470423F6E74023F4E74FF4806394
:100D6C00F1E74FF48043EEE74FF48023EBE70225E5
:100D7C009540254235D08D0733D51A68940606D494
:100D8C001A6822F00A021A60012280F82120214AF6
:100D9C00934219D01432934218D01432934217D084
:100DAC001432934217D01432934217D01432934218
:100DBC000CBF4FF400134FF00073174A536000231D
:100DCC0080F82030836AC1E70223F6E72023F4E79A
:100DDC004FF40073F1E74FF40053EEE74FF4003398
:100DEC00EBE708259540254211D009070FD5196866
:100DFC0021F00E011960012303FA02F27260836381
:100E0C0080F82130002380F82030036B9EE770BC03
:100E1C00704700BF0800024000000240114AD3682E
:100E2C0013F0100305D01049CB6943F00203CB61DA
:100E3C001023D268500706D50B4943F00403CA6946
:100E4C0042F00102CA61074AD169C90708D50648B0
:100E5C00C16941F00401C161D16921F00101D16185
:100E6C00D360704700200240E0060020064B186952
:100E7C0010F0800007D0054A5A6002F188325A609F
:100E8C001869C0F3C0107047002002402301674569
:100E9C00034A0020136943F080031361704700BFBD
:100EAC0000200240F8B50646FFF71EFC114C074621
:100EBC002546E368D80712D4E368990644BF20237B
:100ECC00E360EB68DA0606D4EB69DB0703D4E86869
:100EDC0010F0040002D0FFF7A1FF0120F8BD731C35
:100EEC00E7D00EB90320F8BDFFF7FEFBC01B86420E
:100EFC00DFD2F7E7002002402DE9F84F1F4C99464E
:100F0C00237E0546012B0F46904633D001234CF22D
:100F1C0050302376FFF7C6FF40BB012D03D0022DC6
:100F2C000CBF022504250026B246DFF854B032016E
:100F3C0040464946FFF70CF9C4F81CA0DBF810300A
:100F4C0080B243F00103CBF8103027F816004CF2B6
:100F5C005030FFF7A7FFDBF8103023F00103CBF87C
:100F6C00103018B90136F3B29D42E0D80023237635
:100F7C00BDE8F88F0220BDE8F88F00BFE006002026
:100F8C00002002400022064BDA61064B1A6942F03F
:100F9C0002021A6158611A6942F040021A617047E4
:100FAC00E0060020002002402DE9F74F00242646E1
:100FBC00664BDFF8A8E1DFF8A8C10A6832FA06F53B
:100FCC0002D103B0BDE8F08F4FF0010808FA06F823
:100FDC0002EA080290457FD14D68122D00F0AA80DC
:100FEC0000F28380022D00F0A28077D8002D00F053
:100FFC008980012D00F099804FF00F09FF2A93BFD3
:10100C00824606F18045083DD0F800B092BFB5008D
:10101C00D0F804B0AD0009FA05F82BEA080804FA78
:10102C0005F588BF00F1040A48EA0505CAF8005026
:10103C00D1F804A01AF0805F4ED0454D444FAD69F5
:10104C0026F0030845F00105BD61BD6908F1804833
:10105C0005F00105019508F5803806F0030B019D9C
:10106C004FEA8B0BD8F8085009FA0BF925EA090955
:10107C00384DA84263D005F58065A84261D005F5CE
:10108C008065A8425FD005F58065A8420CBF03259A
:10109C00042505FA0BF545EA0905C8F808501D6842
:1010AC001AF4803F14BF154395431D605D681AF414
:1010BC00003F14BF154395435D609D681AF4801F73
:1010CC0014BF154395439D60DD681AF4001F14BFCF
:1010DC002A4325EA0202DA6001366EE7032D22D09C
:1010EC00112D89D1CC68043486E71B4FBD4209D041
:1010FC0012D8DFF870904D4504D009F580394D4574
:10110C007FF47AAF8C68C4B1012C0CBFC0F810808E
:10111C00C0F8148008246FE77545F3D06545F1D00D
:10112C00DFF84490EBE7002466E7CC6864E7CC6812
:10113C00083461E7CC680C345EE704245CE70025D6
:10114C00A7E70125A5E70225A3E700BF000401409E
:10115C000010024000080140000021100000311076
:10116C000000321000001110000022108368194298
:10117C0014BF0120002070470AB1016170470904B7
:10118C00FBE7C3680B4214BF416101617047F0B5C6
:10119C00044687B010B390F8293203F0FF021BB954
:1011AC0080F8282203F084F9254603236E4655F86F
:1011BC00100B84F8293201F0EBF90FCD0FC62B6818
:1011CC0025463360271D97E80E0055F8100B01F0EB
:1011DC00CFF9064620B1022384F82932012548E0D4
:1011EC000146206801F0DEF930464FF0010E6168CF
:1011FC00C3B2994200F1010017D800221046D3B2B5
:10120C00994202F101021DD86E460FCD0FC62B6814
:10121C00336097E80E00206801F0C6F901230546FB
:10122C0000B3022284F82922D8E704EB431282F897
:10123C0029E082F82830D38682F82B609663D66337
:10124C001664D5E704EB431686F828310A335B01A4
:10125C0086F8290186F82B01C6F83801C6F83C013E
:10126C00E050CCE784F8240084F82932206801F09F
:10127C0081FC284607B0F0BD90F8283210B5012B40
:10128C0004460ED0012180F8281203F03AFA2068A7
:10129C0001F06EFC206801F072F9002084F828023D
:1012AC0010BD022010BD90F8282210B5012A04466A
:1012BC000BD0012280F8282284F82410006801F059
:1012CC0051FC002084F8280210BD022010BD70B51E
:1012DC0011F0800F044601F007004FEA40151FD0B3
:1012EC00012605F128012544214485F829600A616D
:1012FC004A78C0B20870CB7002B1C881022B04BF0F
:10130C0000230B7194F82832012B11D00123206893
:10131C0084F8283201F064F9002084F8280270BDAA
:10132C00002605F594712544214485F82961DEE7F2
:10133C00022070BD01F0070311F0800F10B54FEAC9
:10134C004312044615D002F1280101440244012045
:10135C0082F829000B7094F82832012B11D001234C
:10136C00206884F8283201F0B3FA002084F82802AF
:10137C0010BD02F5947101440244002082F8290149
:10138C00E8E7022010BD70B5002601F007014D0101
:10139C00441984F8281105F594710144C4F83C21D2
:1013AC00C4F84031C4F8446184F82961006801F044
:1013BC00F9FB304670BD01F0070100EB4111D1F88B
:1013CC004401704701F0070170B54D0144192364C5
:1013DC000026012384F8281005F128010144E2635A
:1013EC00666484F82930006801F0DCFB304670BD7F
:1013FC002DE9F84F0446006801F0BEFB020400F131
:10140C001082206801F0B8FB43050FD522682046F6
:10141C00B2F8443023F480631B041B0CA2F8443054
:10142C0003F07DF800212046FFF73DFF206801F016
:10143C00A3FB470408D52268B2F8443023F4804358
:10144C001B041B0CA2F84430206801F095FB8604A9
:10145C0008D52268B2F8443023F400531B041B0C4B
:10146C00A2F84430206801F087FBC5041CD5226823
:10147C002046B2F8403023F004031B041B0CA2F8E6
:10148C004030B2F8403023F008031B041B0CA2F8C8
:10149C00403003F067F82268B2F8443023F48053EC
:1014AC001B041B0CA2F84430206801F065FB0005FE
:1014BC0026D52068B0F840309BB243F00803A0F862
:1014CC004030B0F8443023F400631B041B0CA0F82C
:1014DC004430B0F840309BB243F00403A0F84030E5
:1014EC0001F04AFBC10408D52268B2F8443023F459
:1014FC0080531B041B0CA2F84430204603F022F846
:10150C00206801F039FB82050BD522682046B2F821
:10151C00443023F400731B041B0CA2F8443002F07B
:10152C00FAFF206801F028FBC30508D52268B2F841
:10153C00443023F480731B041B0CA2F84430BDE828
:10154C00F88FB0F8441089B211F00F0640F0B78054
:10155C00038811F010019BB22CD103EA090343F468
:10156C0000430380B0F8503094F828209BB203EB72
:10157C00C20300EB4300B0F80434E26BC3F309037D
:10158C0063641344E363204602F0BEFF94F82430F6
:10159C0053B1226C42B994F82430216843F0800393
:1015AC00A1F84C3084F824202068B0F844301B0497
:1015BC00C7D426E713F4006521D0B0F8503094F866
:1015CC0028219BB203EBC20300EB4303B3F80C34AA
:1015DC00B4F82E21C3F30903C4F8443104F50C719B
:1015EC0001F0C8FB22682046138823F070031B050A
:1015FC001B0D43F08003138002F078FFD4E71F0427
:10160C00D2D5038823F070031B051B0D43F0800318
:10161C000380B0F8503094F828219BB203EBC2033E
:10162C0000EB4303B3F80C34C3F30903C4F844319F
:10163C008BB1D4F83C1171B1B4F82E2101F09AFBA6
:10164C00D4F83C31D4F8442129461344C4F83C3135
:10165C00204602F051FF2168D4F83851B1F85030CF
:10166C0001F20C409BB2CDB9C25A22F4F8421204DA
:10167C00120CC252C25A92B242F40042C2520B88AD
:10168C0023F4804323F070031B041B0C83F440539E
:10169C0043F4004343F080030B8085E73E2D06D8CE
:1016AC006A08EE0748BF0132920292B2E6E76A0975
:1016BC00ED0608BF02F1FF324AEA8222F5E730F864
:1016CC0026801FFA88F818F4004F3DD030F82630E9
:1016DC00770123F070031B051B0D43F0800320F8EA
:1016EC002630E11991F83431002B58D1B0F8503034
:1016FC0091F828219BB2063303EBC20300EB4303A2
:10170C00B3F80054C5F3090535B1B1F82E212B46B9
:10171C00D1F83C1101F02EFBE119D1F84431D1F88C
:10172C003C212B44C1F84431D1F840312A44C1F852
:10173C003C211BB1D1F83801854269D2274497F876
:10174C002811204602F0D8FE18F0800F3FF42CAF81
:10175C002168204631F8262092B202EA090242F4AE
:10176C00004221F82620B1F8503004EB461696F8CA
:10177C0028209BB2023303EBC20301EB4303B3F803
:10178C000024F36BC2F3090272641A44336CF263E3
:10179C0096F82810002B41D102F0B6FE04E791F820
:1017AC00283130F82320DB0012F4804FB0F85020A1
:1017BC0092B21FD00232134400EB4303B3F800542F
:1017CC00C5F3090535B12B46B1F83021D1F83C11E0
:1017DC0001F0D0FAE31993F82811226832F821307D
:1017EC009BB203EA0B0343F4004343F0C00322F81B
:1017FC00213091E70632134400EB4303B3F8005455
:10180C00C5F30905002DE5D02B46B1F83221DDE7F3
:10181C0091F828112046FFF7B6FD95E7FFF7D2FDAA
:10182C00C2E6DFF80C90DFF80CA0DFF80CB0BBE6DA
:10183C000F8FFFFF0080FFFF8F8FFFFF38B54368CE
:10184C0001F007059D42044628D80B061DD5012240
:10185C006B0103F128010344014483F8292001237F
:10186C000D708B7094F828229A4219D084F8283283
:10187C00206801F00CF925B904F50C71206801F011
:10188C007FF9002084F8280238BD00224B0103F5B3
:10189C0094710344014483F82921E0E7012038BD09
:1018AC00022038BD38B5436801F00F029A42044655
:1018BC0026D801F0070311F0800F4FEA431217D01E
:1018CC0002F1280101440244012082F8290000257C
:1018DC000B708D7094F82832012B13D001232068E3
:1018EC0084F8283201F0F3F884F82852284638BDE1
:1018FC0002F5947101440244002082F82901E6E7C4
:10190C00012038BD022038BD11F0800F1BBF01F043
:10191C00070100EB411000EB4110283008BF00F527
:10192C0094701AB90273C38000207047012203819E
:10193C001B0C02734381F7E72DE9F341054608B907
:10194C0001203CE00368DB0710D42B689F075DD4B3
:10195C002B68190700F194802B685A0700F1BE80A0
:10196C00E869002840F02C81002028E08F4C636847
:10197C0003F00C03042B07D0636803F00C03082B53
:10198C0009D16368DE0306D523689C03DDD56B683B
:10199C00002BDAD1D4E76B68B3F5803F12D1236802
:1019AC0043F480332360FEF79FFE064623689803BA
:1019BC00CBD4FEF799FE801B6428F7D9032002B024
:1019CC00BDE8F0819BB9236823F48033236023683E
:1019DC0023F480232360FEF787FE064623689903D1
:1019EC00B3D5FEF781FE801B6428F7D9E6E7B3F583
:1019FC00A02F236803D143F480232360CFE723F483
:101A0C0080332360236823F48023CBE7674C63681F
:101A1C0013F00C0F07D0636803F00C03082B10D1E4
:101A2C006368DA030DD423689B0702D52B69012B5D
:101A3C0086D123686A6923F0F80343EAC203236062
:101A4C0086E72A695A4B6AB101221A60FEF74CFEEE
:101A5C00064623689F07ECD4FEF746FE801B02283F
:101A6C00F7D9ABE71A60FEF73FFE064623689807E6
:101A7C007FF56EAFFEF738FE801B0228F6D99DE786
:101A8C00AA694A4C4B4BDAB101221A60FEF72CFEC4
:101A9C000646636A9B070DD54FF4FA52464B1B68FA
:101AAC00B3FBF2F3019300BF019B5A1E0192002B72
:101ABC00F9D151E7FEF718FE801B0228E9D97DE722
:101ACC001A60FEF711FE0646636A9F077FF544AF66
:101ADC00FEF70AFE801B0228F6D96FE7334CE36948
:101AEC00D80024D40127E36943F08053E361E36910
:101AFC0003F080530093009B304E3368D90518D502
:101B0C00EB68012B26D1236A43F001032362FEF715
:101B1C00EBFD41F288368046236A9B073FD5002FA8
:101B2C003FF41EAFE36923F08053E36118E700270D
:101B3C00E2E7336843F480733360FEF7D5FD8046EB
:101B4C003368DA05DCD4FEF7CFFDA0EB080064287F
:101B5C00F6D933E7ABB9236A41F2883823F0010395
:101B6C002362236A23F004032362FEF7BDFD0646BD
:101B7C00236A9807D3D5FEF7B7FD801B4045F7D9EC
:101B8C001CE7052B236A03D143F004032362BAE755
:101B9C0023F001032362236A23F00403B6E7FEF764
:101BAC00A3FDA0EB0800B042B6D907E70010024035
:101BBC00000042428004424220010020007000409C
:101BCC002A4B5A681C4602F00C02082A3DD000230E
:101BDC00274E022833602BD1FEF786FD074623687B
:101BEC0099011FD42B6AB3F5803F05D16268A968AF
:101BFC0022F400320A436260696A62680B4322F481
:101C0C0074121343636001233360FEF76DFD0546C8
:101C1C0023689A013FF5A8AEFEF766FD401B02282B
:101C2C00F6D9CBE6FEF760FDC01B0228D7D9C5E676
:101C3C00FEF75AFD054623689B017FF595AEFEF72E
:101C4C0053FD401B0228F6D9B8E601283FF4B7AE85
:101C5C0058682B6A00F480329A427FF471AE6B6A3A
:101C6C0000F47010C01A18BF0120A8E60010024042
:101C7C006000424230B5194B87B002AC03F110053D
:101C8C00224618685968083303C2AB421446F7D190
:101C9C0001238DF80430022311498DF805304B686F
:101CAC0003F00C02082A17D1C3F3834206A802449E
:101CBC00DB0312F8102C0CD54B680A48C3F34043D5
:101CCC00504306AA134413F8143CB0FBF3F007B0CE
:101CDC0030BD05485043FAE70248F8E7B452000813
:101CEC000010024000127A0000093D002DE9F0417D
:101CFC000D46044610B90120BDE8F081454A136831
:101D0C0003F007038B4229D321688E0731D4CA070D
:101D1C0044D4404A136803F007039D4267D32268FA
:101D2C003D4D12F0040F6ED1130706D56B68226976
:101D3C0023F4605343EAC2036B60FFF79BFF6B68AD
:101D4C00364AC3F30313D35CD840354B1860354B7C
:101D5C001868FEF787FC0020BDE8F081136823F0BB
:101D6C0007030B431360136803F007039942C2D1B6
:101D7C00CAE7294B11F0040F1EBF5A6842F4E06207
:101D8C005A60080742BF5A6842F460525A605A6857
:101D9C00A06822F0F00202435A60B8E762681E4E57
:101DAC00012A33681BD113F4003FA4D0736841F2AD
:101DBC00883823F0030313437360FEF795FC074642
:101DCC007368626803F00C03B3EB820FA1D0FEF7CB
:101DDC008BFCC01B4045F3D90320BDE8F081022ADF
:101DEC0002D113F0007FE0E713F0020FDDE7136878
:101DFC0023F007032B431360136803F007039D4282
:101E0C007FF479AF8BE76B68E16823F4E0630B43F5
:101E1C006B6089E70020024000100240C8520008A5
:101E2C00200100200400002003682DE9F341D907AC
:101E3C00054620D5354CE369DA0032D40127E36935
:101E4C0043F08053E361E36903F080530193019BFA
:101E5C002F4E3368DB0526D5236A13F4407336D135
:101E6C00236A6A6823F44073134323621FB1E36946
:101E7C0023F08053E3612868830706D5234AA968B9
:101E8C00536823F440430B43536010F010001BD0F5
:101E9C001E4AE9685368002023F480030B43536007
:101EAC0012E00027D4E7336843F480733360FEF705
:101EBC001BFC80463368D805CED4FEF715FCA0EB8E
:101ECC0008006428F6D9032002B0BDE8F0816A68E6
:101EDC0002F440729342C3D001200E4A236A106070
:101EEC00002023F4407110602162D907B8D5FEF7A9
:101EFC00FBFB41F288380646236A9A07B0D4FEF7FA
:101F0C00F3FB801B4045F7D9DDE700BF0010024012
:101F1C000070004040044242036A70B523F0010394
:101F2C000362036A446882690D6822F073022A43D3
:101F3C008D6823F002032B430A4DA8420BD1CD68C8
:101F4C0023F008032B438E694D6924F44074354308
:101F5C0023F004032C43446082614A6842630362A9
:101F6C0070BD00BF002C0140036A70B523F4807370
:101F7C000362036A4468C2690D6822F073022A4343
:101F8C008D6823F4007343EA05230B4DA8420DD151
:101F9C00CD6823F4006343EA05238E694D6924F46C
:101FAC004054354323F4806344EA05144460C26111
:101FBC004A68C263036270BD002C0140036A30B5ED
:101FCC0023F480530362036A4468C2690D6822F4E7
:101FDC00E64242EA05228D6823F4005343EA0533B6
:101FEC00064DA84202BF4D6924F4804444EA85148E
:101FFC004460C2614A680264036230BD002C014037
:10200C0070477047704770477047036810B51A697E
:10201C00044691070ED5DA6892070BD56FF00202D1
:10202C001A6101229B6902779B0777D0FFF7EAFFC1
:10203C000023237723681A69500710D5DA685107F3
:10204C000DD56FF004021A6102229B69227713F4FA
:10205C00407F204668D0FFF7D5FF00232377236805
:10206C001A6912070FD5DA6810070CD56FF0080241
:10207C001A610422DB692277990720465AD0FFF7B0
:10208C00C1FF0023237723681A69D20610D5DA68BA
:10209C00D0060DD56FF010021A610822DB69227789
:1020AC0013F4407F20464BD0FFF7ACFF002323777F
:1020BC0023681A69D10708D5DA68D20705D56FF0FD
:1020CC00010220461A6101F041FD23681A691006CD
:1020DC0008D5DA68110605D56FF0800220461A6122
:1020EC0000F045FA23681A69520608D5DA685006DA
:1020FC0005D56FF0400220461A61FFF785FF236873
:10210C001A69910622D5DA6892061FD56FF0200263
:10211C002046BDE810401A6100F028BAFFF771FFA5
:10212C002046FFF770FF83E7FFF76BFF2046FFF7B2
:10213C006AFF92E7FFF765FF2046FFF764FFA0E711
:10214C00FFF75FFF2046FFF75EFFAFE710BD000013
:10215C001A4A036890420AD0B0F1804F07D0A2F51A
:10216C009432904203D002F58062904215D14A68B5
:10217C0023F070031343114A90420AD0B0F1804F00
:10218C0007D0A2F59432904203D002F580629042BF
:10219C0003D1CA6823F4407313434A6923F08003C4
:1021AC00134303608B68C3620B688362034B9842D2
:1021BC0004BF0B690363012343617047002C01408A
:1021CC0010B50446A0B190F83D3003F0FF021BB9E6
:1021DC0080F83C2002F01CF80223206884F83D3083
:1021EC00211DFFF7B5FF0123002084F83D3010BD01
:1021FC00012010BD10B50446A0B190F83D3003F09D
:10220C00FF021BB980F83C20FFF7FAFE022320687E
:10221C0084F83D30211DFFF79BFF0123002084F83B
:10222C003D3010BD012010BD036A70B523F01003C2
:10223C000362036A446882690D6822F4E64242EA4A
:10224C0005228D6823F0200343EA05130B4DA842A9
:10225C000DD1CD6823F0800343EA05138E694D69D7
:10226C0024F44064354323F0400344EA850444607D
:10227C0082614A688263036270BD00BF002C01401A
:10228C0038B590F83C300446012B4FF0020025D0B5
:10229C00012384F83D0084F83C300C2A18D8DFE880
:1022AC0002F0071717171E1717172F1717174000CD
:1022BC002068FFF731FE236809699A6942F0080229
:1022CC009A619A6922F004029A619A690A439A61A6
:1022DC000123002084F83D3084F83C0038BD206890
:1022EC00FFF7A2FF236809699A6942F400629A61B8
:1022FC009A6922F480629A619A6942EA0122E6E7BD
:10230C002068FFF731FE23680969DA6942F0080298
:10231C00DA61DA6922F00402DA61DA690A43DA6115
:10232C00D6E72068FFF74AFE23680969DA6942F4A8
:10233C000062DA61DA6922F48062DA61DA6942EA0F
:10234C000122ECE710B584680A4324F47F4442EA86
:10235C0003232343836010BD90F83C3070B5012BF0
:10236C0004464FF0020019D0012384F83D00206888
:10237C0084F83C30836823F47F4323F07703836035
:10238C000B68402B65D015D8102B0CD007D853B147
:10239C000123002084F83D3084F83C0070BD202BD4
:1023AC0001D0302BF4D1826843F0070322F0700285
:1023BC0013431AE0602B34D019D8502BE8D14A685B
:1023CC00CE68016A056A21F00A0125F00105056253
:1023DC0083690A4323F0F00343EA06138361026224
:1023EC00836823F0700343F057038360D0E7702BAE
:1023FC000CD0B3F5005FCBD1CB684A688968FFF786
:10240C00A1FF2268936843F4804308E0CB684A68D4
:10241C008968FFF797FF2268936843F0770393600E
:10242C00B6E74D68CE68016A21F01001016282693D
:10243C00036A22F4704223F0A00343EA051342EA34
:10244C00063282610362836823F0700343F06703F2
:10245C00CBE74A68CE68016A056A21F00A0125F0CB
:10246C000105056283690A4323F0F00343EA06136E
:10247C0083610262836823F0700343F04703B4E77F
:10248C0010B50124036A01F01F018C4023EA0403F8
:10249C000362036A8A401A43026210BD10B50446F7
:1024AC0001220068FFF7ECFF2368094A00209342E1
:1024BC0002BF5A6C42F400425A649A6802F0070256
:1024CC00062A1EBF1A6842F001021A6010BD00BF36
:1024DC00002C014010B5044600220068FFF7D0FF25
:1024EC002368124A93420DD141F21112196A11421A
:1024FC0008D140F24442196A114202BF5A6C22F4CC
:10250C0000425A6441F21112196A114208D140F288
:10251C004442196A114202BF1A6822F001021A6081
:10252C000123002084F83D3010BD00BF002C014079
:10253C0090F83C3030B5012B4FF0020314D00468F6
:10254C0080F83D306268A3680D68496822F070021B
:10255C0023F080030B432A436260A360012380F8BD
:10256C003D30002380F83C30184630BD7047704732
:10257C0084B001A880E80E0004B000207047B0F8C9
:10258C0040309BB243F43F43A0F8403000207047EA
:10259C00B0F8403023F47C535B045B0CA0F8403063
:1025AC00002070470020704784B010B503AC84E85D
:1025BC000E00BDE8104000220123A0F84030A0F826
:1025CC004020A0F84420A0F85020B0F8403004B0CF
:1025DC009BB243F43F43A0F84030104670470000D4
:1025EC00F0B50D78034630F82520C87822F4EC427B
:1025FC0022F070021204120C03284ED8DFE800F00F
:10260C00024A044742F40072002048F2800422433C
:10261C0023F825200E78AB4D33F82620344392B2A4
:10262C002A40224323F826200C7B0A78002C40F009
:10263C0088804E78CC8896B3B3F8506003EB0212C6
:10264C0024F00104B6B202F58062A4B294530C7863
:10265C0033F82420560609D533F8242092B22A40A8
:10266C0042F4004242F0C00223F82420CA780978D0
:10267C00012A33F82120944C92B202EA040201D0D0
:10268C0082F0200242F4004242F08002CBE042F49D
:10269C00C062B9E742F48062B6E70120B5E7B3F84F
:1026AC00505003EB021224F00104ADB202F581622A
:1026BC00A4B254530A78B3F850600D6903EB0212BC
:1026CC00B6B202F20C425DBB945B24F4F8442404D1
:1026DC00240C9453945B6FEA44446FEA5444A4B2C0
:1026EC0094530C7833F8242055040DD533F824205A
:1026FC0022F4E04222F070021204120C42F4404226
:10270C0042F0800223F82420097833F8212022F4A7
:10271C00804222F070021204120C82F44052B1E793
:10272C003E2D05D86C08ED0748BF0134A402D6E74E
:10273C006F09EC06654C08BF07F1FF3744EA8724A4
:10274C00CDE733F82240A4B22C4044F4014444F0C9
:10275C00800423F822400A780C89B3F8506003EB0C
:10276C00021224F00104B6B202F58062A4B29453B2
:10277C000A784C89B3F8506003EB021224F0010480
:10278C0002F58162A4B2B6B294534A780C78002A4E
:10279C004CD133F82420520409D533F8242092B2BA
:1027AC002A4042F4404242F0800223F824200C7864
:1027BC0033F8242057060DD533F8242022F4E042B8
:1027CC0022F070021204120C42F4004242F0C002D9
:1027DC0023F824200C7833F8242022F4E04222F051
:1027EC0070021204120C42F4004242F0C00223F8B0
:1027FC00242048F280040D7833F8252022F48042FE
:10280C0022F070021204120C82F44052224323F87C
:10281C002520097833F8212022F4E04222F04002EE
:10282C001204120C224323F82120F0BD33F824208B
:10283C00560409D533F8242092B22A4042F440427F
:10284C0042F0800223F824200C7833F8242052061E
:10285C000DD533F8242022F4E04222F07002120449
:10286C00120C42F4004242F0C00223F824200C78EF
:10287C00154D33F8242022F4E04222F070021204A9
:10288C00120C42F4404242F0800223F82420CA7811
:10289C000C78012A33F8242092B202EA050218BF00
:1028AC0082F0200242F4004242F0800223F82420FD
:1028BC00097833F8212022F4804222F070021204AD
:1028CC00120CDFE68F8FFFFFBF8FFFFF0080FFFF33
:1028DC0010B50C7B4B780A78002C3DD113B330F833
:1028EC0022305C060DD530F8223023F4E04323F07F
:1028FC0070031B041B0C43F4004343F0C00320F88B
:10290C0022300A7830F8223023F4E04323F04003DD
:10291C001B041B0C43F4004343F0800320F82230CB
:10292C00002010BD30F822305B040DD530F8223079
:10293C0023F4E04323F070031B041B0C43F44043CB
:10294C0043F0800320F822300A7830F8223023F448
:10295C00804323F07003DBE7002B4ED130F822309C
:10296C005C040DD530F8223023F4E04323F07003DF
:10297C001B041B0C43F4404343F0800320F822302B
:10298C000A7830F822305B060DD530F8223023F46B
:10299C00E04323F070031B041B0C43F4004343F08F
:1029AC00C00320F822300A7830F8223023F4E043B8
:1029BC0023F070031B041B0C43F4004343F0C003CF
:1029CC0020F8223048F280020C7830F8243023F4BE
:1029DC00804323F070031B041B0C134320F824309A
:1029EC00097830F8213023F4E04323F040031B0432
:1029FC001B0C134320F8213092E730F822305C0492
:102A0C000DD530F8223023F4E04323F070031B047F
:102A1C001B0C43F4404343F0800320F822300A7827
:102A2C0030F822305B060DD530F8223023F4E04329
:102A3C0023F070031B041B0C43F4004343F0C0034E
:102A4C0020F822300A7830F8223023F4E04323F0C7
:102A5C0070031B041B0C43F4404343F0800320F829
:102A6C00223048F280020C7830F8243023F4E04312
:102A7C0023F040031B041B0C134320F8243009786B
:102A8C0030F8213023F4804323F07003AFE74B7808
:102A9C000A788BB130F8223023F4E04323F0400362
:102AAC001B041B0C83F0100343F4004343F080031E
:102ABC0020F822300020704730F8223023F4804375
:102ACC0023F070031B041B0C83F48053ECE70B7B8B
:102ADC0043BB4B780A783BB330F822305B060DD5FC
:102AEC0030F8223023F4E04323F070031B041B0C5A
:102AFC0043F4004343F0C00320F82230CB78012B81
:102B0C0010D00A7830F8223023F4E04323F040034D
:102B1C001B041B0C83F0200343F4004343F080039D
:102B2C0020F822300020704730F822305B040DD59D
:102B3C0030F8223023F4E04323F070031B041B0C09
:102B4C0043F4404343F0800320F822300A7830F8F5
:102B5C00223023F4804323F070031B041B0C83F4FA
:102B6C004053D9E711B98023A0F84C3000207047AE
:102B7C000020704700207047B0F8440080B27047C6
:102B8C000020704700EB4202013302F580625B08C3
:102B9C0002EB83039A4200D1704731F8020B22F802
:102BAC00040BF7E770B50D46497804460129AA696C
:102BBC002B69287B66D19A429DBF0023AB611346DB
:102BCC00D21A88BFAA619EB208BB3346EA886969EB
:102BDC002046FFF7D7FFB4F850302A7899B204F2A8
:102BEC00044312010B44D6522A7834F8223023F4D1
:102BFC00E04323F040031B041B0C83F0300343F42D
:102C0C00004343F0800324F82230002070BD2B7861
:102C1C00204634F823201B0112F0400FB4F850204A
:102C2C0091B215BF04F20C4204F20442521852182D
:102C3C0015BFD652D6526A892A8933466969FFF77D
:102C4C00A1FF6B782A7873B934F8223023F4E0436F
:102C5C0023F070031B041B0C43F4004343F0C0032C
:102C6C0024F82230C0E7012BBED134F8223023F4F3
:102C7C00E04323F070031B041B0C43F4404343F06C
:102C8C008003EDE79A4293BF0023D21AAA61AB618D
:102C9C0098BF13462A78B0B9B4F85000120181B22B
:102CAC0004F20C400844002B44D1835A23F4F8431B
:102CBC001B041B0C8352835A6FEA43436FEA534342
:102CCC009BB283523FE0A1B9B4F85000120181B21B
:102CDC0004F204400844E3B9815A21F4F841090490
:102CEC00090C8152815A6FEA41416FEA514189B214
:102CFC00815269782A780029CED0012923D1B4F8E1
:102D0C005010120188B204F20C4101449BB28B5258
:102D1C0019E03E2B05D85908DE0748BF013189025E
:102D2C00E5E75E09D906124908BF06F1FF3641EA0C
:102D3C008621DCE73E2B12D85908DE0748BF01314B
:102D4C00890289B281522A7834F8223023F48043E4
:102D5C0023F070031B041B0C83F440534FE75909F9
:102D6C00DB06034B08BF01F1FF3143EA8123A7E7E0
:102D7C000080FFFF00EB4202F0B502F580625D08B7
:102D8C00084617462E46023036B9DB0744BF32F8E8
:102D9C00253001F81530F0BD37F8044B013EA4B2D4
:102DAC0000F8024C240A00F8014CECE7D0F8BC32D5
:102DBC0010B5D0F8B8425BB194F80002FF2807D0E8
:102DCC009B6894F8012221469847FF2384F800322F
:102DDC00002010BD432303800048704740000020B2
:102DEC004323038000487047840000204323038062
:102DFC0000487047D40000200A2303800048704725
:102E0C00C800002038B50546D0F8B84201F070FC77
:102E1C00D5F8B832C4F80C024BB1D5F8BC3204F575
:102E2C000371DB68D4F804029847002038BD0220F7
:102E3C0038BDF8B5D0F8B862CEB1142303FB01034A
:102E4C00DA6982B1D0F8C04204EB4114A56BB2FB35
:102E5C00F5F405FB142434B9DC612246234601F059
:102E6C002BFC2046F8BD0020C6F81402F8BD022049
:102E7C00F8BD2DE9F7434FF000080A78054612F02B
:102E8C0060040E46D0F8B8728DF80580ADF8068057
:102E9C0028D0202C47D1CC884B78E4B1120611D520
:102EAC00D0F8BC223946D2F8089018462246C847BA
:102EBC00F2883946284600F048FC4446204603B0C8
:102ECC00BDE8F08387F8003287F801422246394684
:102EDC0000F050FCF1E7D0F8BC2218469568224669
:102EEC00A847EBE74F780A2F0DD00B2F15D0D7B989
:102EFC0090F89C32032B14D102220DF1060100F044
:102F0C0024FC3C46DAE790F89C32032B09D10122D1
:102F1C000DF1050100F019FCD0E790F89C32032B61
:102F2C00CCD03146284600F0E9FB0224C6E738B580
:102F3C0004460025812101F077FB0121E562204642
:102F4C0001F072FBC4F86C518221204601F06CFB3D
:102F5C00D4F8B83225644BB1D4F8BC325B689847CE
:102F6C00D4F8B80201F0CCFBC4F8B852002038BD3C
:102F7C00037C2DE9F0410446CBBB4FF400730222D5
:102F8C008121012501F040FB4FF40073E5622946D5
:102F9C000222204601F038FBC4F86C5101250823AD
:102FAC0003228221204601F02FFB25644FF4077089
:102FBC0001F0A2FB0646C4F8B80258B30027D4F8B7
:102FCC00BC321B68984794F81080C6F81472C6F887
:102FDC001872B8F1000F13D14FF40073D6F8042215
:102FEC002946204601F076FB4046BDE8F0810125DC
:102FFC0040230222812101F007FBE5624023C6E752
:10300C004023D6F804222946204601F063FB3846BB
:10301C00BDE8F0812846BDE8F08119B1C0F8BC12BA
:10302C000020704702207047D0F8B8320020C3F857
:10303C000812C3F810227047D0F8B8320020C3F839
:10304C0004127047D0F8B82210B582B1D2F81442ED
:10305C00012374B9C2F81432D2F8103281210363FF
:10306C00D2F808229BB201F027FB204610BD0220AB
:10307C0010BD184610BDD0F8B82210B562B1047C52
:10308C0044B94FF40073D2F80422012101F022FB61
:10309C00002010BD4023F6E7022010BD08B580B11A
:1030AC00D0F8B43213B10023C0F8B43209B1C0F86F
:1030BC00B0120123027080F89C3201F057FA002004
:1030CC0008BD022008BD19B1C0F8B4120020704729
:1030DC000220704708B501F089FA002008BD08B538
:1030EC00D0F8B4320BB9022008BD1B6898470028F1
:1030FC00F9D108BD08B5D0F8B4325B689847002008
:10310C0008BD38B500F52A750446284600F0E2FAE9
:10311C00012394F8A812C4F89432B4F8AE32C4F86F
:10312C00983201F01F03012B0ED007D3022B10D0C5
:10313C0001F08001204601F085FA03E02946204683
:10314C0000F0F6F8002038BD2946204600F014FAAD
:10315C00F8E72946204600F034FAF3E770B5054647
:10316C00164649BBD0F89432032B1ED1D0F86031EF
:10317C00D0F8642193420BD99B1A9A42C0F8603163
:10318C008CBF9AB292B2314600F003FB002070BDA6
:10319C00D0F8B4321B6923B190F89C22032A00D1D9
:1031AC009847284600F0FDFAF0E7052BEED1C5F85C
:1031BC00941201F047FAE9E7D0F8B4329B692BB1CD
:1031CC0090F89C22032A01D19847DFE7022070BDBA
:1031DC0070B5134604460E46002947D1D0F8942208
:1031EC00022A3CD1056A426A954213D9AA1A026294
:1031FC00194692B200F0B6FA33461A4619462046E2
:10320C0001F068FA94F8A0320020012B3AD184F82E
:10321C00A00270BDC369B3FBF2F502FB153565B9AD
:10322C009A420AD8D0F89822934206D22A4600F045
:10323C0099FAC4F898522B46DFE7D4F8B432DB681D
:10324C002BB194F89C22032A01D120469847802167
:10325C00204601F0F7F9204600F0AEFAD2E732F042
:10326C000403CFD1802101F0EDF9CBE7D0F8B432D3
:10327C005B6933B190F89C22032A02D19847002055
:10328C0070BD022070BD002270B504460125402699
:10329C001146402301F0B8F933468021C4F8585147
:1032AC00C4F864610022204601F0AEF90021D4F884
:1032BC00B832A561666284F89C52C4F894126160BD
:1032CC00C4F8A41223B1D4F8B43220465B689847F2
:1032DC00002070BD01740020704790F89C3280F87B
:1032EC009D32042380F89C320020704790F89C3269
:1032FC00042B04BF90F89D3280F89C32002070475C
:10330C0008B590F89C22032A04D1D0F8B432DB69BA
:10331C0003B19847002008BD10B50446802101F088
:10332C0091F92046BDE81040002101F08BB9000056
:10333C0037B50B78044603F06003202B0D4612D0F2
:10334C00402B10D0002B5CD14B78092B58D8DFE8E0
:10335C0013F0E90005015700FE005700840013002C
:10336C005700D200A000D4F8B43229469B682046FE
:10337C009847002003B030BD0023ADF806304B88D1
:10338C001A0A013A062A3BD8DFE802F004202D3A4B
:10339C003A525C00D0F8B0321B680DF10601207C6B
:1033AC009847BDF8062052B1EB8843B19A4228BF2A
:1033BC001A4601462046ADF8062000F0C6F9EB8807
:1033CC00002BD6D1204600F0ECF9D2E7027CD0F8E5
:1033DC00B43232B99B6A0DF1060098470223437050
:1033EC00DFE7DB6AF7E7DBB2052B09D8DFE803F090
:1033FC00030C1014181CD0F8B0325B68002BCCD125
:10340C002046FFF789FFB4E7D0F8B0329B68F5E7A8
:10341C00D0F8B032DB68F1E7D0F8B0321B69EDE7D9
:10342C00D0F8B0325B69E9E7D0F8B0329B69E5E7D8
:10343C00037C002BE4D1D0F8B4320DF106005B6BA9
:10344C009847AEE7037C002BDAD1D0F8B4320DF1FB
:10345C0006001B6B98470723C1E78B88002BCFD145
:10346C00CB88002BCCD14D887F2DC9D890F89C32BD
:10347C00E9B2032BC4D080F89E1201F00FF920465C
:10348C0000F08FF91DB1022384F89C3271E70123FF
:10349C00FAE78978374D01292970B1D890F89C3218
:1034AC00022B08D0032B14D0FFF736FF29782046C7
:1034BC00FFF720FE5DE7002984D001210323416042
:1034CC0080F89C322046FFF70AFE02287FF47AAF80
:1034DC0096E731B90223416080F89C32FFF70AFE6F
:1034EC0070E7416801293FF46DAFC9B2FFF702FEE6
:1034FC0029786160E6E7CA88012A81D190F89C326C
:10350C00002B3FF47DAF022B04D9032B7FF478AF53
:10351C00011D03E00146002341F8083F204600F05E
:10352C0014F926E790F89C32013B022B3FF668AF6A
:10353C00CB88022B7FF464AF0123C360D0F8A43294
:10354C000BB10323C360022204F10C01E6E74B88A4
:10355C00012B7FF40EAFC4F8A43233E790F89C3201
:10356C00013B022B3FF64CAF4B88012B7FF401AF94
:10357C000023F0E79403002038B50B78044603F0E1
:10358C006003202B0D4602D0402B00D0B3B994F829
:10359C009C32013B022B10D82B79012B0DD8D4F87F
:1035AC00B43229469B6820469847EB881BB910B962
:1035BC00204600F0F6F8002038BD2046FFF7ACFEA0
:1035CC00F9E738B50A78044602F06002202A0B4667
:1035DC0013D0402A11D06AB95D788A88012DD1B2F6
:1035EC001FD035D3032D05D190F89C22022A26D06A
:1035FC00032A0AD0FFF790FE05E0D4F8B42219464E
:10360C00926820469047002038BD5A882AB94A064D
:10361C0003D0DB880BB901F015F8204600F0C1F897
:10362C00F1E790F89C22022A09D0032AE2D15B88A8
:10363C00002BE8D14D06F0D001F012F8EDE74B0667
:10364C0016D000F0FFFF8021204600F0FBFFDAE7E8
:10365C0090F89C32022B0DD0032BCBD1142312F0FB
:10366C00800F01F00F0203FB020214D09269EAB939
:10367C002046BFE74906FBD113064FF000034FF07D
:10368C0002024CBF00F1140100F5AA710B60204638
:10369C0000F05BF8B7E7D2F85821002AE8D001F027
:1036AC007F0503FB050505F5AA7504E001F07F0510
:1036BC0005FB0335054411F07F0303D12B60022277
:1036CC002946E4E7204600F0D9FF08B10123F5E7CD
:1036DC002860F4E70B7803704B784370CA788B78CA
:1036EC0003EB022343804A790B7903EB022383809B
:1036FC00CA798B7903EB0223C380704710B504465B
:10370C00802100F09FFF2046BDE81040002100F012
:10371C0099BF30B588B105462B1A15F8014BDBB2B1
:10372C00002CF9D101335B0013800B7003234B7019
:10373C000223013810F8015F05B930BD5A1CCD5475
:10374C00D2B20233DBB28C54F4E71346022210B52A
:10375C00C0F89422C3610A460362002100F0ACFF5A
:10376C00002010BD08B513460A46002100F0A4FF46
:10377C00002008BD1346032210B5C0F89422C0F8EF
:10378C005C310A46C0F86031002100F0A3FF002034
:10379C0010BD08B513460A46002100F09BFF00201F
:1037AC0008BD08B50423C0F8943200231A46194604
:1037BC0000F082FF002008BD08B50523C0F8943244
:1037CC0000231A46194600F085FF002008BD0000B2
:1037DC0070B51F4C1F4D23781F482BB1002323704D
:1037EC002B8040F6B83303801C4B1B7873B11C4AFA
:1037FC002B881C4912880A3356092B800B88921B84
:10380C009342AABF184B9B191B880B802A880388EC
:10381C009A4215D900211548FEF75CFE0421134885
:10382C00FEF758FE00224FF480411148FDF7A4FC2E
:10383C00104B114A1A600123237000232B8070BD9A
:10384C0001210E48FDF792FC0028E3D070BD00BFAB
:10385C009E030020640700201A01002000070020AE
:10386C00540700201C0700200A070020DC0700205A
:10387C0000100140600700208D380008000C01404A
:10388C00F8B5294C294D2378294EB3B10023237068
:10389C002B80284BD888FCF71DFD274B0746188832
:1038AC00FCF718FD01463846FCF76CFD4FF06651ED
:1038BC00FCF768FDFCF7B6FE3080204B1B7813B18B
:1038CC002B880A332B802A8833889A422BD91C4E9A
:1038DC001C4B316830468A691A601A6822F07002F3
:1038EC001A601A6822F4E0421A601A6842F0600208
:1038FC001A601A6842F4E0421A601B688B6100215E
:10390C00FEF7CCFD04213046FEF7C8FD01224FF432
:10391C0080410D48FDF730FC0C4B0D4A1A6000231A
:10392C002B8001232370F8BD2004002064070020A5
:10393C001E0100201E070020560700200007002053
:10394C00DC0700203C040020001001406007002030
:10395C00153A0008F8B5224D224C2B78224A2BB18F
:10396C0000232B7023804FF47A7313801F4B1B782A
:10397C0013B123880A3323802188138899422DD9C7
:10398C0000261B4F1B4B396838468A691A601A6827
:10399C0022F070021A601A6822F4E0421A601A6867
:1039AC0042F070021A601A6842F4C0421A601B6836
:1039BC008B61114B31461E80FEF770FD0421384699
:1039CC00FEF76CFD01224FF480410C48FDF7D4FB4F
:1039DC000B4B0C4A26801A6001232B70F8BD00BFDC
:1039EC001F040020640700201C0100200007002099
:1039FC00DC070020400400201C07002000100140C0
:103A0C0060070020DD370008F8B5274D4FF4004162
:103A1C002648FDF7B6FB2B78254C264EC3B1002368
:103A2C00254A2B7013802380244B9888FCF752FC7A
:103A3C00234B07461888FCF74DFC01463846FCF72B
:103A4C00A1FC4FF06651FCF79DFCFCF7EBFD3080C0
:103A5C001C4B1B786BB11C492388174A09880A3305
:103A6C004809238013880F1ABB42BABF1B18138056
:103A7C001180228833889A4214D900211348FEF70A
:103A8C0029FD04211148FEF725FD00224FF4804149
:103A9C000648FDF771FB0E4B0E4A1A6001232B7082
:103AAC0000232380F8BD00BF9603002000100140C6
:103ABC0064070020180100201C0700201E070020AE
:103ACC00120700200007002054070020DC0700200C
:103ADC006007002061390008282230B595B00DEB45
:103AEC000200002100F0DAFE142200210DEB02008E
:103AFC0000F0D4FE0021102201A800F0CFFE4FF4FC
:103B0C008033012202240B9312934FF4E0130AA882
:103B1C000A920E9213931194FDF70EFF0F230025BA
:103B2C0005934FF48063214605A8089309930694E6
:103B3C000795FEF7DBF8122301934FF4404301A8DD
:103B4C0003930495FEF770F915B030BD036810B5FA
:103B5C00B3F1804F044618D14FF480410B48FDF768
:103B6C0010FB0B4AE3681188206811F0010F094C17
:103B7C001BBF053343632488238808BF053301F139
:103B8C00010108BF44638363118010BD0010014024
:103B9C003A0400201C0700200121144A144B15483C
:103BAC001970136800880B448342136021BF124BB9
:103BBC00197000231360114A1149136809880133E5
:103BCC008B42136004D301210E4B19700023136038
:103BDC000D4A0E491368098801338B42136004D3D4
:103BEC0001210B4B19700023136070472C0400202B
:103BFC000E0700205807002016070020280400207C
:103C0C0018070020000700202404002010070020C3
:103C1C005C07002038B50546144CFDF727F914480D
:103C2C00FDF7B0F921464AF6CD3200230120FDF70D
:103C3C0063F92A88A11C00230120FDF75DF96A882D
:103C4C00211D00230120FDF757F9AA88A11D00238F
:103C5C000120FDF751F9EA88002304F10801012045
:103C6C00FDF74AF9BDE83840FDF712B954030020BE
:103C7C0000FC00082DE9F8438E488F4B01881A8808
:103C8C008E4C0A445B8821888D4D0B44297892B266
:103C9C000131C9B29BB21029028023804CD029700B
:103CAC00884D2B78DBB2012B40F09880864E327811
:103CBC00002A51D10A2085490870CA540133802B3F
:103CCC00FBD10024DFF83C82DFF80092804F58F8DB
:103CDC002410484600F00EFE7E4B7F4933F814202A
:103CEC00384600F0E3FD7D49384600F003FE013410
:103CFC003946484600F0FEFD042CE8D1774973485C
:103D0C0000F0F8FDD8F81010704800F0F3FD6F4883
:103D1C00FCF716FA81B26D4800F0B4FB704B714899
:103D2C00196800231A468B4213D1012333706E4B52
:103D3C002A701A70BDE8F8830021120929706B4DA6
:103D4C0064322A801B096A4A643313800180218003
:103D5C00A6E71A540133E6E7012A66D10023194677
:103D6C005A4A99540133802BFBD15E4800F067FD11
:103D7C005B4B5C4C1A6800231F4681B29A422FD1D0
:103D8C006429DFF88081584F2DD83B78012B2ED831
:103D9C00584B3A7823F8121082B24F494C4800F035
:103DAC0085FD4B49494800F0A5FD3C784B49013451
:103DBC00E4B246483C7000F09DFD032C2CD8043432
:103DCC0058F82410414800F095FD4048FCF7B8F92C
:103DDC0081B23E4800F056FB00232B70BDE8F883FF
:103DEC001F550133CAE741F28833994202D83B7818
:103DFC00012BCDD83949354800F07CFDD8F820107E
:103E0C00324800F077FD3549304800F073FD3B78BF
:103E1C00043358F82310D5E7022330492B4833706C
:103E2C0000F068FDD8F82410CCE7022AD6D1002384
:103E3C001946264A99540133802BFBD1294B1A7809
:103E4C00792A1A462FD1264B1968002318468B4223
:103E5C002CD16420284B27491B880A88B3FBF0F02F
:103E6C004B8842431B4C43438888C98892B2E180FB
:103E7C00224922800A80224A9BB2A080174913480B
:103E8C001380638000F036FD1E4B1048996A00F0D9
:103E9C0031FD0E48FCF754F981B20C4800F0F2FAEF
:103EAC002046FFF7B7FE0023337096E7D05401335A
:103EBC00CDE700BF980300201C0800209A030020C7
:103ECC0095030020AD0400209D0300209F030020DB
:103EDC00300400201E070020C5520008C452000800
:103EEC00B0040020480400209C030020120700208E
:103EFC00560700200207002014070020540700205A
:103F0C000A0700202807002080B57A4D92B0FCF7F4
:103F1C00CDFBFFF7E1FD102200210BA800F0BEFC49
:103F2C00AB69002243F01003AB61AB694FF4604105
:103F3C0003F010030193019BAB696F4843F020031E
:103F4C00AB61AB69002403F020030293029BAB69C5
:103F5C004FF0010843F00403AB61AB69022703F097
:103F6C0004030393039BAB69644E43F00803AB61FA
:103F7C00AB6903F008030493049BFDF7FDF84FF4C1
:103F8C0060430BA95C480B93CDF830800D940E97D1
:103F9C00FDF70AF80BA95A48CDF82C800C940D9417
:103FAC00FDF702F86B69224643EA08036B616B6903
:103FBC00214603EA080300930B20009BFCF7D4FD79
:103FCC000B20FCF705FE4F4B304633604FF48073EB
:103FDC00B3604FF4602386F80C803475F361746021
:103FEC000B940C940D943761FCF72CFD07230BA953
:103FFC0030460D93CDF82C80CDF83080FCF7B6FB15
:10400C000BA930460B970C97FCF7B0FB21461022FE
:10401C0007A800F043FC1C2221460BA8059406942B
:10402C0000F03CFC4FF08043374DDFF8008185E811
:10403C0088004FF47A532846AC60EB602C61AC617D
:10404C00FEF7BEF84FF4805307A928460793FEF7F6
:10405C0083F92846FEF7CEF805A928460594069460
:10406C00FEF766FA602322460BA928460B930C94A4
:10407C000D940F94FEF704F970230BA90422284623
:10408C000B93FEF7FDF84FF4C863204A2846EB600B
:10409C00138000F0D9F800F07DF91D4B3A461D490C
:1040AC003046C8F80030FCF71DFC2A682146D3685E
:1040BC00284643F00103D360FEF7F0F92846164D6D
:1040CC000421FEF7EBF92E46144C2B7803B9FEE7CE
:1040DC00D8F800309847FFF7CDFD237803B100BF27
:1040EC0000230F4A337013700E4A237013700E4A5C
:1040FC001370EAE70010024000100140680700202E
:10410C00000C014000240140DC07002014070020B3
:10411C008D3800081C0800200E0700200007002026
:10412C00160700205C0700202707002060070020EE
:10413C00704700000E4B82B09A6942F001029A61FE
:10414C009A6902F001020092009ADA6942F08052F8
:10415C00DA61DB69074A03F080530193019B5368D2
:10416C0023F0E06343F00073536002B0704700BF6C
:10417C00001002400000014030B5054687B0102207
:10418C00002102A800F08AFB2A681D4B9A4234D108
:10419C0003F56C439A691B4842F400729A619A6960
:1041AC0002A902F400720092009A9A69164C42F02D
:1041BC0004029A619B6903F004030193019B06239B
:1041CC00029303230393FCF7EFFE8022E2604FF48B
:1041DC00807222614FF480620C4B6261236020225A
:1041EC00002320466360A360A261E361FCF714FD29
:1041FC0008B1FFF79DFF2C62656207B030BD00BFB0
:10420C0000240140000801409807002008000240EB
:10421C00036807B5B3F1804F12D103F50433DA69A3
:10422C001C2042F00102DA610022DB69114603F026
:10423C0001030193019BFCF797FC1C20FCF7C8FCC5
:10424C0003B05DF804FB000010B5044686B01022E4
:10425C00002102A800F022FB2368B3F1804F2FD17C
:10426C0003F504339A69022442F004029A619A69B4
:10427C0002A902F004020092009A9A69114842F0D5
:10428C0008029A619B69039403F008030193019B54
:10429C004FF4004305940293FCF786FE08230A486A
:1042AC000DEB0301029303940594FCF77DFE074A82
:1042BC00536823F4407343F0E06343F4807353601A
:1042CC0006B010BD00080140000C01400000014088
:1042DC007047FEE7FEE7FEE7FEE770477047704762
:1042EC0008B5FFF759FCBDE80840FCF7F1B9000030
:1042FC000148FCF7FFBC00BF980700200148FDF700
:10430C0077B800BFE80B00200148FDF77EBE00BF68
:10431C00DC07002008B50A4B0246196809B909499F
:10432C0019606946186802448A4206D900F08CFA72
:10433C000C2303604FF0FF3008BD1A6008BD00BFAE
:10434C0044040020581000200F4B1A6842F0010260
:10435C001A6059680D4A0A405A601A6822F0847231
:10436C0022F480321A601A6822F480221A605A6889
:10437C0022F4FE025A604FF41F029A604FF0006262
:10438C00034B9A60704700BF001002400000FFF81A
:10439C0000ED00E008B500220E490F48FEF77EFE46
:1043AC0008B1FFF7C5FE0D490B48FEF78CFE08B1AE
:1043BC00FFF7BEFE0A490848FEF72FFE08B1FFF7CB
:1043CC00B7FE0548FEF786FE18B1BDE80840FFF7BA
:1043DC00AFBE08BD340100202008002008000020DA
:1043EC00240100200020704700207047F8B50B68AE
:1043FC00144D04462B60FCF777F9134E3368C01A42
:10440C00B0F57A7F08D900222146104B1A702A6821
:10441C000F4D224491420ED121460E48FEF70CFE60
:10442C000C48FEF728FE01220B4B1A70FCF75CF9C6
:10443C0030600020F8BD1878471C1F7011F8017B04
:10444C002F54E7E7B0040020E40B0020AC0400205C
:10445C004804002020080020AD04002010B5064CB4
:10446C00002206492046FEF7DFFD05492046FEF7EF
:10447C00E3FD002010BD00BF20080020640B0020CD
:10448C00E40A002010B5094C0A46D4F8B832D3F827
:10449C00143243B901462046FEF7C6FD2046BDE85E
:1044AC001040FEF7CFBD012010BD00BF200800203A
:1044BC0007B50D4B02689A4212D103F5DA33DA696B
:1044CC00142042F40002DA610022DB69114603F485
:1044DC0000030193019BFCF747FB1420FCF778FBCE
:1044EC0003B05DF804FB00BF005C004000F50C71EC
:1044FC00D0F86802FEF705BE00EB4113D3F83C215F
:10450C00D0F86802FEF72ABE00EB4113DA6BD0F844
:10451C006802FEF75DBED0F86802FEF7F1BE836854
:10452C0010B5022B044601D0FFF702FED4F8680246
:10453C000121FEF7CFFED4F86802BDE81040FEF76B
:10454C00A2BE000010B50446D0F86802FEF7C5FE06
:10455C00A36923B1024A136943F00603136110BD2A
:10456C0000ED00E0D0F86802FEF7C0BE022308227E
:10457C0010B51C4904461C4880E80E000023C4F802
:10458C00C002C0F868428361C3610362FCF7FFFD9F
:10459C0008B1FFF7CDFD002218231146D4F8C00254
:1045AC00FDF7B2F9582300228021D4F8C002FDF7A0
:1045BC00ABF9C02300228121D4F8C002FDF7A4F985
:1045CC004FF4887300220121D4F8C002FDF79CF946
:1045DC004FF4807300228221D4F8C002FDF794F9C5
:1045EC00002010BD005C0040E80B002008B5D0F89E
:1045FC00C002FCF741FE03289ABF024B185C022054
:10460C0008BD00BFD852000810B51C46D0F8C00237
:10461C0013462246FCF75BFE03289ABF014B185C3D
:10462C00022010BDD852000808B5D0F8C002FCF723
:10463C0081FE03289ABF024B185C022008BD00BF04
:10464C00D852000808B5D0F8C002FDF7F7F80328D7
:10465C009ABF024B185C022008BD00BFD85200085C
:10466C0008B5D0F8C002FDF71DF903289ABF024B1C
:10467C00185C022008BD00BFD85200080A06D0F80A
:10468C00C03245BF01F07F0103EB411303EB411333
:10469C0093F82A0058BF93F82A01704708B5D0F850
:1046AC00C002FCF700FE03289ABF024B185C0220E4
:1046BC0008BD00BFD852000808B5D0F8C002FCF7FE
:1046CC0081FE03289ABF024B185C022008BD00BF74
:1046DC00D852000808B5D0F8C002FCF754FE0328E5
:1046EC009ABF024B185C022008BD00BFD8520008CC
:1046FC00D0F8C002FCF75FBE00487047B40400203D
:10470C0070477047122301480B80704750010020FE
:10471C00042301480B80704764010020002330B54E
:10472C001D46DCB2A24200D830BD040F092C94BF48
:10473C003034373401F8134001EB43040001657049
:10474C000133EEE71A2310B50B80094B18680833B8
:10475C001B68C0180AD0074B08221C680649FFF7D3
:10476C00DDFF042205492046FFF7D8FF044810BDA1
:10477C00E8F7FF1FECF7FF1F6A0100207A01002009
:10478C006801002010B5044C0A4604482146FEF787
:10479C00C0FF204610BD00BF540E0020F55200088B
:1047AC0010B5044C0A4604482146FEF7B2FF2046D9
:1047BC0010BD00BF540E00200853000810B5044C67
:1047CC000A4604482146FEF7A4FF204610BD00BF50
:1047DC00540E0020DC52000810B5044C0A46044864
:1047EC002146FEF796FF204610BD00BF540E002058
:1047FC00E7520008002103E00B4B5B584350043197
:10480C000A480B4B42189A42F6D30A4A02E000239C
:10481C0042F8043B084B9A42F9D3FFF795FD00F0A0
:10482C0019F8FFF771FB7047645400080000002072
:10483C00540300207803002058100020FEE70A22C1
:10484C00002100F0E7B80000014B1868704700BF6A
:10485C008401002070B500250C4E0D4CA41BA41037
:10486C00A54209D100F014FD00250A4E0A4CA41BE8
:10487C00A410A54205D170BD56F8253098470135D6
:10488C00EEE756F8253098470135F2E75C540008FE
:10489C005C5400085C540008605400080346024451
:1048AC00934200D1704703F8011BF9E70EB44FF4A3
:1048BC00027100B59CB0ADF814106FF0004104917A
:1048CC0007914FF6FF711DAB02900690084853F804
:1048DC00042BADF81610006802A9019300F020F922
:1048EC000022029B1A701CB05DF804EB03B07047F9
:1048FC0084010020024610B513461C780132002CAE
:10490C00FAD1013B11F8012B03F8012F002AF9D140
:10491C0010BD2DE9F84F8046894692461F468B46BE
:10492C005D460A9815F8014B00F08AF82044467849
:10493C0016F008060BD12D2C0BD101262C780BF17F
:10494C00020567B1102F14D1302C0AD011E0AB4600
:10495C00E6E72B2C04BF2C780BF10205F1E7302C89
:10496C0027D12B7803F0DF03582B4BD110276C7811
:10497C000235002E0CBF6FF000414FF000410022B9
:10498C00B1FBF7FE104607FB1E1CA4F13003092BEC
:10499C0011D81C46A7421DDD531C07D0864516D3E3
:1049AC0001D1A44513DB012200FB074015F8014B94
:1049BC00EBE70A27DDE7A4F14103192B01D8373CBB
:1049CC00E8E7A4F16103192B04D8573CE2E74FF058
:1049DC00FF32EBE7531C08D122230846C8F80030FD
:1049EC00BAF1000F07D1BDE8F88F06B14042BAF119
:1049FC00000F0CD022B1013DCAF80050BDE8F88F71
:104A0C004D46F9E73024002FB3D10827B1E7BDE8B4
:104A1C00F88F0000084B37B51C68084D236A002B33
:104A2C0008BF2B46009313460A4601462046FFF763
:104A3C0070FF03B030BD00BF84010020E8010020EE
:104A4C00D0F8EC00704782B001B901A942B14BB16A
:104A5C0013780B601278101C18BF012002B070473D
:104A6C001046FBE76FF00100F8E72DE9F0478E6880
:104A7C0082469E420C469146984635D88A8912F455
:104A8C00906F31D00223256809696F1A656905EBAF
:104A9C00450595FBF3F508F101033B449D4238BFF6
:104AAC001D46530531D5294600F052FB064650B938
:104ABC000C23CAF80030A3894FF0FF3043F04003B9
:104ACC00A381BDE8F0873A46216900F0D0FAA389AA
:104ADC0023F4906343F08003A38126613E44266057
:104AEC0046466561ED1BA560464528BF46464946CE
:104AFC003246206800F0C6FAA36800209B1BA36016
:104B0C0023681E442660BDE8F0872A4600F07EFB31
:104B1C0006460028E1D12169504600F0CDFAC7E7DE
:104B2C002DE9F04F9DB003938B8980461C060D46F2
:104B3C0016460FD50B696BB9402100F009FB2860B4
:104B4C00286128B90C23C8F800304FF0FF30C4E0BE
:104B5C0040236B610023099320238DF829303023E7
:104B6C004FF0010B8DF82A3037463C4614F8013BC8
:104B7C00002B3CD1B7EB060A0BD0534632462946E4
:104B8C004046FFF772FF013000F0A280099B5344AE
:104B9C0009933B78002B00F09B8000234FF0FF32F1
:104BAC0004930793059206938DF853301A930522BC
:104BBC002178504800F04DFA671C049BD8B9D906EF
:104BCC0044BF20228DF853201A0744BF2B228DF8A6
:104BDC00532022782A2A16D000210A20079A274629
:104BEC003B780134303B092B50D9C9B111E0252B4E
:104BFC00C0D02746B9E73F4A3C46801A0BFA00F072
:104C0C0018430490D3E7039A111D12680391002AEC
:104C1C0001DB079204E0524243F002030792049333
:104C2C003B782E2B0DD17B78791C2A2B32D1039B10
:104C3C0002371A1D1B680392002BB8BF4FF0FF33CD
:104C4C0005932D4C03223978204600F002FA38B136
:104C5C004023001B03FA00F0049B01370343049329
:104C6C003978062225487E1C8DF8281000F0F1F9C1
:104C7C00002835D0224BFBB9039B073323F00703E5
:104C8C0008330393099B4B4409936DE700FB0232F5
:104C9C000121A4E700230A24184605930F463A780D
:104CAC000131303A092A03D9002BCAD00590C8E744
:104CBC0004FB00200123F1E703AB00932A46114BC0
:104CCC0004A94046AFF30080B0F1FF3F8146D9D133
:104CDC00AB895B063FF539AF09981DB0BDE8F08F85
:104CEC0003AB00932A46074B04A9404600F084F816
:104CFC00EAE700BF285300082E530008325300087F
:104D0C0000000000774A00082DE9F04791461F4645
:104D1C008A680B6906469342B8BF1346C9F800303F
:104D2C0091F843200C46DDF8208012B10133C9F80C
:104D3C0000302368990642BFD9F800300233C9F815
:104D4C000030256815F0060507D104F1190AE3684F
:104D5C00D9F800209B1A9D422ADB94F84330226834
:104D6C00003318BF012392062FD404F143023946B5
:104D7C003046C047013022D02368E56803F00603B3
:104D8C00042B18BF0025D9F800204FF0000908BFEC
:104D9C00AD1AA368226908BF25EAE5759342C4BF22
:104DAC009B1AED181A344D451BD10020BDE8F08735
:104DBC000123524639463046C047013003D14FF0EB
:104DCC00FF30BDE8F0870135C1E73020E11881F8EC
:104DDC0043005A1C94F845102244023382F84310C5
:104DEC00C3E70123224639463046C0470130E6D09E
:104DFC0009F10109D7E700002DE9F04317460A7EB7
:104E0C0085B06E2A984606460C460C9B01F1430E63
:104E1C0000F0BC801AD8632A2ED00AD8002A00F0E1
:104E2C00C880582A00F08A8004F1420584F8422098
:104E3C002AE0642A01D0692AF6D121681A6811F097
:104E4C00800F23D0111D1960136827E0732A00F01E
:104E5C00B48008D86F2A2AD0702AE5D10A6842F0AB
:104E6C0020020A6003E0752A21D0782ADCD178224E
:104E7C006F4984F8452064E01A6801F14205111D60
:104E8C001960136884F842300123A3E011F0400F3D
:104E9C0002F104011960D7D0B2F90030002B03DA0B
:104EAC002D225B4284F8432062490A2217E02068D5
:104EBC00196810F0800F03D0081D18600B6806E00D
:104ECC0010F0400F01F104001860F7D00B886F2A26
:104EDC0014BF0A2208225749002084F84300656851
:104EEC00002DA560C0F29C80206820F0040020609A
:104EFC00002B3FD1002D40F095807546082A0BD130
:104F0C002368DA0708D5236962689A42DEBF30232A
:104F1C0005F8013C05F1FF35AEEB05032361CDF837
:104F2C0000803B4603AA21463046FFF7EDFE0130D8
:104F3C0055D14FF0FF3005B0BDE8F08381F8452026
:104F4C003C492268186812F0800F00F104051D60BE
:104F5C0001D0036802E05506FBD50388D00744BF97
:104F6C0042F0200222601BB9226822F0200222604B
:104F7C001022B1E77546B3FBF2F002FB1033CB5CA9
:104F8C0005F8013D03460028F5D1B7E708681A6813
:104F9C0010F0800F496904D0101D18601368196057
:104FAC0007E010F0400F02F1040018601368F6D00F
:104FBC001980002375462361B1E71A68111D196029
:104FCC00156800216268284600F043F808B1401BC0
:104FDC00606063682361002384F843309FE7236992
:104FEC002A4639463046C0470130A2D023689B0779
:104FFC0007D5002504F11909E368039A9B1A9D4211
:10500C0005DBE068039B9842B8BF184693E7012381
:10501C004A4639463046C04701308AD00135EBE765
:10502C00002BA7D10B7804F1420584F8423065E7D8
:10503C004A5300083953000849B1FF2A8BBF8A2311
:10504C000A700360012088BF4FF0FF30704708469C
:10505C00704710B5C9B202449042034601D10020FA
:10506C0010BD1C7801308C42F6D1184610BD10B51D
:10507C00431E0A44914200D110BD11F8014B03F8B4
:10508C00014FF7E7884210B501EB020303D8421E2B
:10509C0099420CD110BD9842F9D28118D21AD34240
:1050AC0000D110BD13F8014D01F8014DF7E711F8CF
:1050BC00014B02F8014FEBE738B50546002943D008
:1050CC0051F8043C0C1F002BB8BFE41800F0D4F8C6
:1050DC001E4A1368104633B9636014602846BDE855
:1050EC00384000F0CAB8A3420BD921686218934229
:1050FC0001BF1A685B685218226063600460EDE7B8
:10510C0013465A680AB1A242FAD919685818A04233
:10511C000BD120680144581882421960DED1106806
:10512C005268014419605A60D8E702D90C232B60ED
:10513C00D4E7206821188A4201BF11685268091807
:10514C00216062605C60C9E738BD00BFD4060020F6
:10515C0070B5CD1C25F0030508350C2D38BF0C257A
:10516C00002D064601DBA94203D90C233360002035
:10517C0070BD00F081F8234A1468214691B9224C85
:10518C0023681BB9304600F067F82060294630468A
:10519C0000F062F8431C26D10C233046336000F03B
:1051AC006CF8E4E70B685B1B1AD40B2B0FD90B6064
:1051BC00CC18CD50304600F060F804F10B00231DE4
:1051CC0020F00700C31A1BD05A42E25070BD8C422B
:1051DC000BBF63684B681360636018BF0C46E9E74C
:1051EC000C464968CAE7C41C24F00304A04205D04D
:1051FC00211A304600F030F80130CDD02560D9E7C7
:10520C0070BD00BFD4060020D8060020F8B50746B4
:10521C0014460E4621B91146BDE8F840FFF798BF79
:10522C0022B9FFF749FF25462846F8BD00F026F8BD
:10523C0084420FD921463846FFF78AFF05460028DD
:10524C00F2D031462246FFF712FF31463846FFF7BF
:10525C0033FFE9E73546E7E738B50023054C05464B
:10526C0008462360FFF756F8431C02D1236803B1AC
:10527C002B6038BD541000207047704751F8040C57
:10528C000028A0F10400BCBF0B58C01870470000E8
:10529C00F8B500BFF8BC08BC9E467047F8B500BF17
:0852AC00F8BC08BC9E467047E7
:1052B40002030405060708090A0B0C0D0E0F101053
:1052C4000A2564000000000000000000010203043D
:1052D400060708090002010243444320436F6E6637
:1052E40069670043444320496E746572666163656F
:1052F4000053544D6963726F656C656374726F6EAD
:105304006963730053544D33322056697274756166
:105314006C20436F6D506F7274004300504F5349BB
:1053240058002E00232D302B2000686C4C0065663D
:1053340067454647003031323334353637383941E2
:1053440042434445460030313233343536373839F8
:1053540061626364656600002020202020202020F4
:105364002028282828282020202020202020202011
:105374002020202020202020881010101010101031
:105384001010101010101010040404040404040479
:10539400040410101010101010414141414141010A
:1053A40001010101010101010101010101010101E9
:1053B40001010110101010101042424242424202F8
:1053C40002020202020202020202020202020202B9
:1053D4000202021010101020000000000000000063
:1053E40000000000000000000000000000000000B9
:1053F40000000000000000000000000000000000A9
:105404000000000000000000000000000000000098
:105414000000000000000000000000000000000088
:105424000000000000000000000000000000000078
:105434000000000000000000000000000000000068
:105444000000000000000000000000000000000058
:08545400000000000000000050
:04545C003101000812
:045460000D01000832
:1054640001000000100000007D2F00083B2F000801
:105474007F2E000800000000B92D00083F2E000810
:10548400112E0008000000000000000000000000D1
:10549400ED2D0008E12D0008F92D0008052E000867
:1054A40009024300020100C03209040000010202A3
:1054B4000100052400100105240100010424020256
:1054C40005240600010705820308001009040100F1
:1054D400020A0000000705010240000007058102DE
:1054E4004000000009024300020100C03209040028
:1054F400000102020100052400100105240100013D
:105504000424020205240600010705820308001092
:1055140009040100020A000000070501020002005C
:1055240007058102000200000A0600020000004094
:105534000100000009074300020104C0320904000D
:1055440000010202010005240010010524010001EC
:105554000424020205240600010705820308001042
:1055640009040100020A00000007050102400000CE
:1055740007058102400000006400640064006400C8
:105584000024F40069440008F1430008F5430008CE
:10559400F9430008114700081D4700089147000817
:1055A400AD47000851470008C9470008E54700080F
:1055B400120100020202004083044057000201026B
:1055C40003010000040309041A03000000000000A2
:1055D40000000000000000000000000000000000C7
:1055E400000000008801002000000000000000000E
:1055F40000000000000000000000000000000000A7
:105604000000000000000000000000000000000096
:105614000000000000000000000000000000000086
:105624000000000000000000000000000000000076
:105634000000000000000000000000000000000066
:105644000000000000000000430000000000000013
:105654000000000000000000000000000000000046
:1056640000000000000000004300000000000000F3
:105674000000000000000000000000000000000026
:1056840000000000000000004300000000000000D3
:105694000000000000000000000000000000000006
:1056A40000000000000000004300000000000000B3
:1056B40000000000000000000000000000000000E6
:1056C4000000000000000000430000000000000093
:1056D40000000000000000000000000000000000C6
:1056E4000000000000000000430000000000000073
:1056F40000000000000000000000000000000000A6
:105704000000000000000000430000000000000052
:105714000000000000000000000000000000000085
:10572400000000000000000045500008534A000833
:10573400000000005B530008265300082D530008A6
:105744002D5300082D5300082D5300082D53000835
:105754002D5300082D5300082D5300082D53000825
:10576400FFFFFFFFFFFFFFFFFFFFFFFFFFFF000043
:1057740001004153434949000000000000000000BB
:105784000000000000000000000000000000000015
:10579400000041534349490000000000000000009C
:1057A40000000000000000000000000000000000F5
:0457B40000000000F1
:1057B80000000000000000000000000000000000E1
:1057C80000000000000000000000000000000000D1
:0400000508004801A6
:00000001FF
