:020000040800F2
:100000000050002081870008997C0008A57C00082A
:10001000AB7C0008B17C0008B77C00080000000041
:10002000000000000000000000000000BD7C00088F
:10003000C97C000800000000D57C0008E17C0008B5
:10004000C9870008C9870008C9870008C987000850
:10005000C9870008C9870008C9870008C987000840
:10006000C9870008C9870008C9870008F17C000813
:10007000C9870008C9870008C9870008C987000820
:10008000C9870008C9870008C9870008C987000810
:10009000057D0008C9870008C9870008C9870008CE
:1000A000C9870008C9870008C9870008C9870008F0
:1000B000197D0008C9870008C9870008C98700089A
:1000C000C9870008C9870008C9870008C9870008D0
:1000D000C9870008C9870008C9870008C9870008C0
:1000E000C9870008C9870008C98700080000000008
:1000F0000000000000000000000000000000000000
:0C01000000000000000000005FF808F1A3
:10010C0010B5054C237833B9044B13B10448AFF345
:10011C0000800123237010BD680300200000000044
:10012C001C92000808B5034B1BB103490348AFF3FD
:10013C00008008BD000000006C0300201C92000829
:10014C00034613F8012B002AFBD1181A013870470B
:10015C0080F0004002E000BF81F0004142001FBF70
:10016C005FEA410392EA030F7FEA226C7FEA236C79
:10017C006AD04FEA1262D2EB1363C1BFD21841406E
:10018C0048404140B8BF5B42192B88BF704710F004
:10019C00004F40F4000020F07F4018BF404211F0A7
:1001AC00004F41F4000121F07F4118BF494292EA0F
:1001BC00030F3FD0A2F1010241FA03FC10EB0C003B
:1001CC00C3F1200301FA03F100F0004302D54942C8
:1001DC0060EB4000B0F5000F13D3B0F1807F06D375
:1001EC0040084FEA310102F10102FE2A51D2B1F16D
:1001FC00004F40EBC25008BF20F0010040EA030062
:10020C007047490040EB000010F4000FA2F101020E
:10021C00EDD1B0FA80FCACF1080CB2EB0C0200FA98
:10022C000CF0AABF00EBC25052421843BCBFD040E6
:10023C001843704792F0000F81F4000106BF80F460
:10024C0000000132013BB5E74FEA41037FEA226C23
:10025C0018BF7FEA236C21D092EA030F04D092F0EE
:10026C00000F08BF0846704790EA010F1CBF002022
:10027C00704712F07F4F04D1400028BF40F000407F
:10028C00704712F100723CBF00F50000704700F09F
:10029C00004343F0FE4040F4000070477FEA2262C6
:1002AC0016BF08467FEA23630146420206BF5FEA97
:1002BC00412390EA010F40F4800070474FF0000397
:1002CC0004E000BF10F0004348BF40425FEA000C5E
:1002DC0008BF704743F0964301464FF000001CE006
:1002EC0050EA010208BF70474FF000030AE000BF5C
:1002FC0050EA010208BF704711F0004302D540429A
:10030C0061EB41015FEA010C02BF8446014600200B
:10031C0043F0B64308BFA3F18053A3F50003BCFA26
:10032C008CF2083AA3EBC25310DB01FA02FC6344D3
:10033C0000FA02FCC2F12002BCF1004F20FA02F2DA
:10034C0043EB020008BF20F00100704702F12002CD
:10035C0001FA02FCC2F1200250EA4C0021FA02F22E
:10036C0043EB020008BF20EADC7070474FF0FF0C33
:10037C001CEAD0521EBF1CEAD15392EA0C0F93EA2E
:10038C000C0F6FD01A4480EA010C400218BF5FEAD0
:10039C0041211ED04FF0006343EA501043EA511143
:1003AC00A0FB01310CF00040B1F5000F3EBF49003D
:1003BC0041EAD3715B0040EA010062F17F02FD2A41
:1003CC001DD8B3F1004F40EBC25008BF20F0010024
:1003DC00704790F0000F0CF0004C08BF49024CEA3B
:1003EC00502040EA51207F3AC2BFD2F1FF0340EACD
:1003FC00C250704740F400004FF00003013A5DDC3E
:10040C0012F1190FDCBF00F000407047C2F100027E
:10041C00410021FA02F1C2F1200200FA02FC5FEA6B
:10042C00310040F1000053EA4C0308BF20EADC70B5
:10043C00704792F0000F00F0004C02BF400010F427
:10044C00000F013AF9D040EA0C0093F0000F01F0D4
:10045C00004C02BF490011F4000F013BF9D041EAF6
:10046C000C018FE70CEAD15392EA0C0F18BF93EAF8
:10047C000C0F0AD030F0004C18BF31F0004CD8D122
:10048C0080EA010000F00040704790F0000F17BFA9
:10049C0090F0004F084691F0000F91F0004F14D0EF
:1004AC0092EA0C0F01D142020FD193EA0C0F03D147
:1004BC004B0218BF084608D180EA010000F000404A
:1004CC0040F0FE4040F40000704740F0FE4040F425
:1004DC00400070474FF0FF0C1CEAD0521EBF1CEAC4
:1004EC00D15392EA0C0F93EA0C0F69D0A2EB0302E2
:1004FC0080EA010C49024FEA402037D04FF080537C
:10050C0043EA111143EA10130CF000408B4238BF40
:10051C005B0042F17D024FF4000C8B4224BF5B1A4E
:10052C0040EA0C00B3EB510F24BFA3EB510340EA9C
:10053C005C00B3EB910F24BFA3EB910340EA9C004A
:10054C00B3EBD10F24BFA3EBD10340EADC001B01BA
:10055C0018BF5FEA1C1CE0D1FD2A3FF650AF8B425E
:10056C0040EBC25008BF20F0010070470CF0004C6B
:10057C004CEA50207F32C2BFD2F1FF0340EAC25096
:10058C00704740F400004FF00003013A37E792F057
:10059C00000F00F0004C02BF400010F4000F013AB5
:1005AC00F9D040EA0C0093F0000F01F0004C02BFB0
:1005BC00490011F4000F013BF9D041EA0C0195E719
:1005CC000CEAD15392EA0C0F08D142027FF47DAFB2
:1005DC0093EA0C0F7FF470AF084676E793EA0C0FA2
:1005EC0004D14B023FF44CAF08466EE730F0004CA0
:1005FC0018BF31F0004CCAD130F000427FF45CAF30
:10060C0031F000437FF43CAF5FE700BF42000ED2F5
:10061C00B2F1FE4F0BD34FF09E03B3EB126209D431
:10062C004FEA002343F0004323FA02F070474FF0E7
:10063C000000704712F1610F01D1420202D14FF05C
:10064C00FF3070474FF00000704700BF80B500AF1F
:10065C00084A084B1B6843F010031360032000F09A
:10066C00DDFC002000F008F807F0F2F90023184632
:10067C0080BD00BF0020024080B582B000AF786022
:10068C00124B1A68124B1B7819464FF47A73B3FB52
:10069C00F1F3B2FBF3F3184600F0F5FC0346002B24
:1006AC0001D001230EE07B680F2B0AD80022796859
:1006BC004FF0FF3000F0BDFC064A7B68136000234E
:1006CC0000E0012318460837BD4680BD30010020EC
:1006DC00040000200000002080B400AF054B1B7804
:1006EC001A46054B1B681344034A136000BFBD46F2
:1006FC0080BC704704000020DC06002080B400AFF2
:10070C00024B1B681846BD4680BC7047DC060020B7
:10071C0080B586B000AF78600023FB7500233B6189
:10072C000023BB600023FB607B68002B01D10123FD
:10073C00BEE07B689B68002B7B689B6A002B09D111
:10074C007B680022DA627B68002283F824207868B8
:10075C0007F0B0F9786800F0F7FA0346FB757B6890
:10076C009B6A03F01003002B40F09980FB7D002B5B
:10077C0040F095807B689B6A23F4885323F0020336
:10078C0043F002027B689A627B685A687B68DB697B
:10079C001A437B681B7B5B001343BA681343BB6033
:1007AC007B689B68B3F5807F03D07B689B68012BCB
:1007BC0002D14FF4807300E000233A6913433B618C
:1007CC007B681B7D012B19D17B681B7B002B09D10E
:1007DC007B689B69013B5A033B69134343F40063F9
:1007EC003B610BE07B689B6A43F020027B689A625A
:1007FC007B68DB6A43F001027B68DA627B681B680A
:10080C007A681268526822F469413A690A435A605C
:10081C007B681A687B681B689968274B0B40B96822
:10082C000B4393607B689B68B3F5807F03D07B6838
:10083C009B68012B04D17B681B69013B1B05FB608A
:10084C007B681B687A681268D26A22F47001FA68B5
:10085C000A43DA627B681B689A68184B1340BA68C3
:10086C0093420BD17B680022DA627B689B6A23F08F
:10087C00030343F001027B689A6218E07B689B6A71
:10088C0023F0120343F010027B689A627B68DB6AE8
:10089C0043F001027B68DA620123FB7507E07B6899
:1008AC009B6A43F010027B689A620123FB75FB7D07
:1008BC0018461837BD4680BDFDF7E1FFFE0E1FFF41
:1008CC0080B586B000AFF860B9607A600023FB7524
:1008DC00FB681B68644A934204D0FB681B68634A3C
:1008EC00934206D1604B5B6803F47023002B40F0FD
:1008FC00B380FB6893F82430012B01D10223AEE0C6
:10090C00FB68012283F82420F86800F0CBF9034639
:10091C00FB75FB7D002B40F09A80FB689B6A23F4EF
:10092C00706323F0010343F48072FB689A62FB68E6
:10093C001B684E4A934205D14B4B5B6803F4702302
:10094C00002B15D1FB689B6A23F48012FB689A621A
:10095C00FB681B685B6803F48063002B26D0FB6884
:10096C009B6A23F4405343F48052FB689A621DE067
:10097C00FB689B6A43F48012FB689A62FB681B68F5
:10098C00394A934204D0FB681B68384A93420DD114
:10099C00354B5B6803F48063002B07D0FB689B6AC4
:1009AC0023F4405343F48052FB689A62FB689B6AC1
:1009BC0003F48053002B06D0FB68DB6A23F006029D
:1009CC00FB68DA6202E0FB680022DA62FB68002254
:1009DC0083F82420FB681B6A254A9A62FB681B6A11
:1009EC00244ADA62FB681B6A234A1A63FB681B6899
:1009FC006FF002021A60FB681B68FA681268926852
:100A0C0042F480729A60FB68186AFB681B684C336E
:100A1C001946BA687B6800F09DFBFB681B689B68F5
:100A2C0003F46023B3F5602F08D1FB681B68FA68E8
:100A3C001268926842F4A0029A600FE0FB681B688F
:100A4C00FA681268926842F480129A6006E0FB68B9
:100A5C00002283F8242001E00123FB75FB7D18465E
:100A6C001837BD4680BD00BF00240140002801405E
:100A7C00C90D0008450E0008610E000880B483B053
:100A8C0000AF786000BF0C37BD4680BC704780B4A7
:100A9C0083B000AF786000BF0C37BD4680BC704798
:100AAC0080B483B000AF786000BF0C37BD4680BC0B
:100ABC007047000090B484B000AF786039600023B8
:100ACC00FB730023BB607B6893F82430012B01D1AE
:100ADC000223DCE07B68012283F824203B685B68FE
:100AEC00062B1CD87B6819687B681B68586B3B68A5
:100AFC005A6813469B001344053B1F2202FA03F36A
:100B0C00DB4318403B681C683B685A6813469B00E3
:100B1C001344053B04FA03F303434B633CE03B688B
:100B2C005B680C2B1CD87B6819687B681B68186B7E
:100B3C003B685A6813469B001344233B1F2202FA5E
:100B4C0003F3DB4318403B681C683B685A68134648
:100B5C009B001344233B04FA03F303430B631BE096
:100B6C007B6819687B681B68D86A3B685A681346AF
:100B7C009B001344413B1F2202FA03F3DB43184052
:100B8C003B681C683B685A6813469B001344413B06
:100B9C0004FA03F30343CB623B681B68092B1CD993
:100BAC007B6819687B681B68D8683B681A681346B1
:100BBC005B0013441E3B072202FA03F3DB4318408D
:100BCC003B689C683B681A6813465B0013441E3BE9
:100BDC0004FA03F30343CB6019E07B6819687B6864
:100BEC001B6818693B681A6813465B00134407229C
:100BFC0002FA03F3DB4318403B689C683B681A68B5
:100C0C0013465B00134404FA03F303430B613B6884
:100C1C001B68102B03D03B681B68112B32D17B68EF
:100C2C001B681D4A934225D17B681B689B6803F4A3
:100C3C000003002B26D17B681B687A6812689268C7
:100C4C0042F400029A603B681B68102B1AD1134BBC
:100C5C001B68134AA2FB03239A0C13469B001344F4
:100C6C005B00BB6002E0BB68013BBB60BB68002B58
:100C7C00F9D107E07B689B6A43F020027B689A629B
:100C8C000123FB737B68002283F82420FB7B18462E
:100C9C001037BD4690BC7047002401403001002045
:100CAC0083DE1B4380B584B000AF78600023FB600B
:100CBC000023BB607B681B689B6803F00103012B5E
:100CCC0039D07B681B687A681268926842F001021E
:100CDC009A601B4B1B681B4AA2FB03239B0CBB603B
:100CEC0002E0BB68013BBB60BB68002BF9D1FFF78E
:100CFC0005FDF86018E0FFF701FD0246FB68D31A0A
:100D0C00022B11D97B689B6A43F010027B689A62B4
:100D1C007B68DB6A43F001027B68DA627B68002245
:100D2C0083F82420012307E07B681B689B6803F091
:100D3C000103012BDFD1002318461037BD4680BDBF
:100D4C003001002083DE1B4380B584B000AF786097
:100D5C000023FB607B681B689B6803F00103012B7D
:100D6C0027D17B681B687A681268926822F00102AE
:100D7C009A60FFF7C3FCF86014E0FFF7BFFC024673
:100D8C00FB68D31A022B0DD97B689B6A43F01002C7
:100D9C007B689A627B68DB6A43F001027B68DA62EB
:100DAC00012307E07B681B689B6803F00103012BA0
:100DBC00E3D0002318461037BD4680BD80B584B003
:100DCC0000AF78607B685B6AFB60FB689B6A03F032
:100DDC005003002B27D1FB689B6A43F40072FB681D
:100DEC009A62FB681B689B6803F46023B3F5602F61
:100DFC0015D1FB681B7B002B11D1FB689B6A23F47C
:100E0C008072FB689A62FB689B6A03F48053002B28
:100E1C0005D1FB689B6A43F00102FB689A62F86893
:100E2C00FFF72CFE04E0FB681B6A1B6B7868984785
:100E3C0000BF1037BD4680BD80B584B000AF786070
:100E4C007B685B6AFB60F868FFF721FE00BF103718
:100E5C00BD4680BD80B584B000AF78607B685B6AAE
:100E6C00FB60FB689B6A43F04002FB689A62FB687C
:100E7C00DB6A43F00402FB68DA62F868FFF710FEE5
:100E8C0000BF1037BD4680BD80B485B000AF786020
:100E9C007B6803F00703FB600C4BDB68BB60BA6834
:100EAC004FF6FF031340BB60FB681A02BB68134389
:100EBC0043F0BF6343F40033BB60044ABB68D360A8
:100ECC0000BF1437BD4680BC704700BF00ED00E08A
:100EDC0080B400AF044BDB681B0A03F00703184611
:100EEC00BD4680BC704700BF00ED00E080B483B00D
:100EFC0000AF0346FB7197F90730002B0BDB084959
:100F0C0097F907305B09FA7902F01F02012000FA09
:100F1C0002F241F8232000BF0C37BD4680BC70475D
:100F2C0000E100E080B483B000AF03463960FB7190
:100F3C0097F90730002B0ADB0D4997F907303A680F
:100F4C00D2B21201D2B20B4483F800230AE0094951
:100F5C00FB7903F00F03043B3A68D2B21201D2B210
:100F6C000B441A7600BF0C37BD4680BC704700BFDF
:100F7C0000E100E000ED00E080B489B000AFF86063
:100F8C00B9607A60FB6803F00703FB61FB69C3F18E
:100F9C000703042B28BF0423BB61FB690433062B16
:100FAC0002D9FB69033B00E000237B610122BB6992
:100FBC0002FA03F35A1EBB681A407B699A4001215E
:100FCC007B6901FA03F3591E7B680B4013431846E7
:100FDC002437BD4680BC704780B582B000AF7860C6
:100FEC007B68013BB3F1807F01D301230FE00A4AF8
:100FFC007B68013B53600F214FF0FF30FFF792FFEE
:10100C00054B00229A60044B07221A6000231846F5
:10101C000837BD4680BD00BF10E000E080B582B04F
:10102C0000AF78607868FFF72FFF00BF0837BD4628
:10103C0080BD80B586B000AF0346B9607A60FB73A3
:10104C0000237B61FFF744FF78617A68B96878699F
:10105C00FFF792FF024697F90F3011461846FFF73B
:10106C0061FF00BF1837BD4680BD80B582B000AFB0
:10107C000346FB7197F907301846FFF737FF00BF9F
:10108C000837BD4680BD80B582B000AF7860786807
:10109C00FFF7A2FF034618460837BD4680BD000087
:1010AC0080B485B000AF78600023FB607B68002BB8
:1010BC0001D1012343E07B681B681A46224B134481
:1010CC00224AA2FB03231B099A007B681A647B68E3
:1010DC001F4ADA637B68022283F821207B681B6835
:1010EC001B68FB60FB6823F47F5323F03003FB6029
:1010FC007B685A687B689B681A437B68DB681A4379
:10110C007B681B691A437B685B691A437B689B6924
:10111C001A437B68DB691343FA681343FB607B68F3
:10112C001B68FA681A607B6800229A637B6801224C
:10113C0083F821207B68002283F8202000231846A6
:10114C001437BD4680BC7047F8FFFDBFCDCCCCCC6E
:10115C000000024080B586B000AFF860B9607A60DC
:10116C003B600023FB75FB6893F82030012B01D109
:10117C0002234AE0FB68012283F82020FB6893F8E5
:10118C002130012B3AD1FB68022283F82120FB6825
:10119C0000229A63FB681B68FA681268126822F0D6
:1011AC0001021A603B687A68B968F86800F044F983
:1011BC00FB68DB6A002B08D0FB681B68FA681268B6
:1011CC00126842F00E021A600FE0FB681B68FA68A6
:1011DC001268126822F004021A60FB681B68FA6835
:1011EC001268126842F00A021A60FB681B68FA68FF
:1011FC001268126842F001021A6005E0FB680022D6
:10120C0083F820200223FB75FB7D18461837BD465A
:10121C0080BD000080B584B000AF78607B68DB6B6C
:10122C001B68FB607B681B681B68BB607B681B6C66
:10123C0004229A40FB681340002B55D0BB6803F086
:10124C000403002B50D07B681B681B6803F0200341
:10125C00002B07D17B681B687A681268126822F031
:10126C0004021A606D4A7B681B6819466C4B9942E4
:10127C002ED07B681B6819466A4B994226D07B6836
:10128C001B681946684B99421DD07B681B68194630
:10129C00664B994214D07B681B681946644B994283
:1012AC000BD07B681B681946624B994202D14FF4F4
:1012BC0080030EE04FF080630BE04FF4802308E0D6
:1012CC004FF4804305E04FF4806302E0402300E0DC
:1012DC00042353607B68DB6A002B00F09A807B68E8
:1012EC00DB6A7868984794E07B681B6C02229A4012
:1012FC00FB681340002B5CD0BB6803F00203002B8F
:10130C0057D07B681B681B6803F02003002B0BD1A4
:10131C007B681B687A681268126822F00A021A60ED
:10132C007B68012283F821203C4A7B681B681946A4
:10133C003B4B99422ED07B681B681946394B99421E
:10134C0026D07B681B681946374B99421DD07B68A9
:10135C001B681946354B994214D07B681B6819469B
:10136C00334B99420BD07B681B681946314B994221
:10137C0002D14FF400130EE04FF000730BE04FF46A
:10138C00003308E04FF4005305E04FF4007302E023
:10139C00202300E0022353607B68002283F8202086
:1013AC007B689B6A002B34D07B689B6A7868984773
:1013BC002FE07B681B6C08229A40FB681340002BC3
:1013CC0028D0BB6803F00803002B23D07B681B6874
:1013DC007A681268126822F00E021A607B68DB6B66
:1013EC007A68126C012101FA02F25A607B680122C0
:1013FC009A637B68012283F821207B68002283F8A2
:10140C0020207B681B6B002B04D07B681B6B7868DF
:10141C00984700BF00BF1037BD4680BD000002409A
:10142C00080002401C000240300002404400024010
:10143C00580002406C00024080B485B000AFF860E8
:10144C00B9607A603B60FB68DB6BFA68126C012157
:10145C0001FA02F25A60FB681B683A685A60FB6832
:10146C005B68102B08D1FB681B687A689A60FB6874
:10147C001B68BA68DA6007E0FB681B68BA689A6098
:10148C00FB681B687A68DA6000BF1437BD4680BC05
:10149C0070470000F0B587B000AFF860B960C7E9DD
:1014AC0000230123FB750023BB7500237B752F4B99
:1014BC001B7E012B01D1022354E02C4B01221A7606
:1014CC004CF2503000F0A8F80346FB75FB7D002B66
:1014DC0044D1FB68012B02D101237B7507E0FB682B
:1014EC00022B02D102237B7501E004237B750023C0
:1014FC00BB752DE0BB7D5A00BB6802EB030EBB7DB8
:10150C001901D7E90023C1F12006A1F1200022FA2C
:10151C0001F403FA06F6344323FA00F0044323FAE9
:10152C0001F5A3B21946704600F05AF84CF250304F
:10153C0000F072F80346FB750D4A0D4B1B6923F046
:10154C0001031361FB7D002B07D1BB7D0133BB7500
:10155C00BA7D7B7D9A42CDD300E000BF034B0022C5
:10156C001A76FB7D18461C37BD46F0BDE006002000
:10157C000020024080B483B000AF0023FB710D4B00
:10158C001B6903F08003002B0DD00A4B0A4A5A60EA
:10159C00084B0A4A5A60074B1B6903F08003002B67
:1015AC0001D00123FB71FB7918460C37BD4680BC7A
:1015BC00704700BF0020024023016745AB89EFCD87
:1015CC0080B400AF054A054B1B6943F080031361DF
:1015DC0000231846BD4680BC704700BF0020024067
:1015EC0080B483B000AF78600B467B80084B002240
:1015FC00DA61084A074B1B6943F0010313617B68EE
:10160C007A881A8000BF0C37BD4680BC704700BF7B
:10161C00E00600200020024080B584B000AF786066
:10162C00FFF76CF8F86010E07B68B3F1FF3F0CD06B
:10163C007B68002B07D0FFF761F80246FB68D21AD3
:10164C007B689A4201D9032325E0154BDB6803F034
:10165C000103002BE8D1124BDB6803F02003002BB5
:10166C0002D00F4B2022DA600D4BDB6803F0100325
:10167C00002B0BD10A4BDB6903F00103002B05D1C6
:10168C00074BDB6803F00403002B03D000F00AF8CF
:10169C00012300E0002318461037BD4680BD00BF73
:1016AC000020024080B483B000AF00237B60234B4A
:1016BC00DB6803F01003002B09D0214BDB6943F0EE
:1016CC0002031F4AD3617B6843F010037B601B4B02
:1016DC00DB6803F00403002B09D0194BDB6943F0E2
:1016EC000103174AD3617B6843F004037B60134BFF
:1016FC00DB6903F00103002B0BD0114BDB6943F0CA
:10170C0004030F4AD3610D4A0C4BDB6923F0010330
:10171C00D3617B6840F20112934206D1074A074B12
:10172C00DB6923F00103D36102E0044A7B68D360D8
:10173C0000BF0C37BD4680BC704700BF0020024084
:10174C00E006002080B584B000AF786039600123DA
:10175C00FB730023BB602F4B1B7E012B01D102239B
:10176C0053E02C4B01221A767B681B68022B16D196
:10177C004CF25030FFF750FF0346002B41D10120B3
:10178C0000F04CF84CF25030FFF746FF0346FB7369
:10179C00214A214B1B6923F00403136131E04CF205
:1017AC005030FFF739FF0346002B2AD13B684FF02E
:1017BC00FF321A607B689B68BB6019E0B86800F068
:1017CC0049F84CF25030FFF727FF0346FB73124ADF
:1017DC00114B1B6923F002031361FB7B002B03D01D
:1017EC003B68BA681A600CE0BB6803F58063BB60A9
:1017FC007B68DB689A027B689B681A44BB689A42D8
:10180C00DCD8044B00221A76FB7B18461037BD46F9
:10181C0080BD00BFE00600200020024080B483B0F1
:10182C0000AF7860094B0022DA61094A084B1B694A
:10183C0043F004031361064A054B1B6943F0400354
:10184C00136100BF0C37BD4680BC7047E00600201A
:10185C000020024080B483B000AF78600B4B0022B4
:10186C00DA610B4A0A4B1B6943F002031361084A05
:10187C007B685361064A064B1B6943F040031361B6
:10188C0000BF0C37BD4680BC704700BFE00600208F
:10189C000020024080B48BB000AF78603960002328
:1018AC007B6200233B6227E101227B6A02FA03F38D
:1018BC00FB613B681A68FB691340BB61BA69FB6941
:1018CC009A4240F016813B685B68122B34D0122B85
:1018DC000DD8022B2BD0022B04D8002B31D0012B8E
:1018EC001CD048E0032B43D0112B1BD043E0894A7A
:1018FC00934226D0874A934206D8874A934220D0F7
:10190C00864A93421DD036E0854A934219D0854AC7
:10191C00934216D0844A934213D02CE03B68DB6888
:10192C003B6228E03B68DB6804333B6223E03B68A6
:10193C00DB6808333B621EE03B68DB680C333B62C0
:10194C0019E03B689B68002B02D104233B6212E038
:10195C003B689B68012B05D108233B627B68FA69C5
:10196C001A6108E008233B627B68FA695A6102E05D
:10197C0000233B6200BFBB69FF2B01D87B6801E0F1
:10198C007B6804337B61BB69FF2B02D87B6A9B00AD
:10199C0002E07B6A083B9B003B617B691A680F2164
:1019AC003B6901FA03F3DB431A40396A3B6901FADC
:1019BC0003F31A437B691A603B685B6803F080533E
:1019CC00002B00F09680594A584B9B6943F0010359
:1019DC009361564B9B6903F00103BB60BB68544A8F
:1019EC007B6A9B08023352F82330FB607B6A03F05E
:1019FC0003039B000F2202FA03F3DB43FA68134044
:101A0C00FB607B684B4A934213D07B684A4A9342F3
:101A1C000DD07B68494A934207D07B68484A934271
:101A2C0001D1032306E0042304E0022302E0012396
:101A3C0000E000237A6A02F0030292009340FA68F5
:101A4C001343FB603A497B6A9B080233FA6841F8FE
:101A5C0023203B685B6803F48033002B06D03949A4
:101A6C00384B1A68BB6913430B6006E03549354B9C
:101A7C001A68BB69DB4313400B603B685B6803F47B
:101A8C000033002B06D02F492E4B5A68BB691343E9
:101A9C004B6006E02B492B4B5A68BB69DB43134068
:101AAC004B603B685B6803F48013002B06D0254920
:101ABC00244B9A68BB6913438B6006E02149214B88
:101ACC009A68BB69DB4313408B603B685B6803F42B
:101ADC000013002B06D01B491A4BDA68BB69134361
:101AEC00CB6006E01749174BDA68BB69DB43134040
:101AFC00CB607B6A01337B623B681A687B6A22FA93
:101B0C0003F3002B7FF4D0AE00BF2C37BD4680BC56
:101B1C00704700BF000021100000111000001210CF
:101B2C0000003110000032100000221000100240A2
:101B3C000000014000080140000C01400010014071
:101B4C00001401400004014080B485B000AF7860FF
:101B5C000B467B807B689A687B881340002B02D0F5
:101B6C000123FB7301E00023FB73FB7B1846143746
:101B7C00BD4680BC704780B483B000AF78600B4624
:101B8C007B8013467B707B78002B03D07A887B6834
:101B9C001A6103E07B881A047B681A6100BF0C375A
:101BAC00BD4680BC704780B584B000AF78607B6860
:101BBC00002B01D101232BE07B681B684CF6CC4237
:101BCC001A607B681B6845F255521A607B681B686B
:101BDC007A6852685A607B681B687A6892689A6067
:101BEC00FEF78CFDF86008E0FEF788FD0246FB6806
:101BFC00D31A302B01D903230AE07B681B68DB68FE
:101C0C00002BF1D17B681B684AF6AA221A600023CC
:101C1C0018461037BD4680BD80B483B000AF7860E5
:101C2C007B681B684AF6AA221A60002318460C37F8
:101C3C00BD4680BC7047F0B58BB006AF78607B6852
:101C4C00002B01D10123D3E07B6893F82932DBB25E
:101C5C00002B06D17B68002283F82822786806F0D6
:101C6C00DDF97B68032283F829227B681B68184600
:101C7C0002F00BFA7B681B683B607E686D4606F1D0
:101C8C0010040FCC0FC523682B60331D0ECB3868A6
:101C9C0002F0D4F90346002B05D07B68022283F8AE
:101CAC0029220123A4E07B681B680021184602F05E
:101CBC0008FA0023FB7335E0FB7B7A685B01134465
:101CCC00293301221A70FB7B7A685B011344283399
:101CDC00FA7B1A70FB7BFA7B91B27A685B01134436
:101CEC0036330A461A80FB7B7A685B0113442B332C
:101CFC0000221A70FB7B7A685B0113443833002294
:101D0C001A60FB7B7A685B0113443C3300221A6037
:101D1C00FB7B7A6802335B01134400221A60FB7B65
:101D2C000133FB73FA7B7B685B689A42C4D3002354
:101D3C00FB7331E0FB7B7A685B01134403F22913DC
:101D4C0000221A70FB7B7A685B01134403F59473D1
:101D5C00FA7B1A70FB7B7A685B01134403F22B133A
:101D6C0000221A70FB7B7A685B01134403F59C73A9
:101D7C0000221A60FB7B7A685B01134403F59E73A7
:101D8C0000221A60FB7B7A680A335B011344002241
:101D9C001A60FB7B0133FB73FA7B7B685B689A42AE
:101DAC00C8D37B681B683B607E686D4606F11004E7
:101DBC000FCC0FC523682B60331D0ECB386802F097
:101DCC008CF90346002B05D07B68022283F829226C
:101DDC0001230DE07B68002283F824207B6801221C
:101DEC0083F829227B681B68184603F0CAF9002384
:101DFC0018461437BD46F0BD80B582B000AF786090
:101E0C007B6893F82832012B01D1022316E07B6802
:101E1C00012283F828220121786806F066FB7B6892
:101E2C001B68184603F0A3F97B681B68184602F080
:101E3C0015F97B68002283F82822002318460837FE
:101E4C00BD4680BD80B582B000AF78607B681B68F2
:101E5C00184603F0A0F9034603F40043B3F5004F12
:101E6C0002D1786800F0F2FA7B681B68184603F020
:101E7C0092F9034603F48063B3F5806F12D17B684B
:101E8C001B687A681268B2F8442092B222F480621D
:101E9C0092B2A3F84420786806F035F900217868EE
:101EAC0000F0DEF87B681B68184603F074F90346F3
:101EBC0003F48043B3F5804F0BD17B681B687A68C1
:101ECC001268B2F8442092B222F4804292B2A3F883
:101EDC0044207B681B68184603F05DF9034603F445
:101EEC000053B3F5005F0BD17B681B687A681268EE
:101EFC00B2F8442092B222F4005292B2A3F84420D9
:101F0C007B681B68184603F046F9034603F48053BC
:101F1C00B3F5805F26D17B681B687A681268B2F8CB
:101F2C00402092B222F0040292B2A3F840207B68C7
:101F3C001B687A681268B2F8402092B222F008024C
:101F4C0092B2A3F84020786806F016F97B681B68FB
:101F5C007A681268B2F8442092B222F4805292B29B
:101F6C00A3F844207B681B68184603F014F9034659
:101F7C0003F40063B3F5006F3DD17B681B687A688E
:101F8C001268B2F8402092B242F0080292B2A3F862
:101F9C0040207B681B687A681268B2F8442092B2C1
:101FAC0022F4006292B2A3F844207B681B687A6822
:101FBC001268B2F8402092B242F0040292B2A3F836
:101FCC0040207B681B68184603F0E5F8034603F4D1
:101FDC008053B3F5805F0BD17B681B687A681268FD
:101FEC00B2F8442092B222F4805292B2A3F8442068
:101FFC00786806F0A7F87B681B68184603F0CBF8E6
:10200C00034603F40073B3F5007F0ED17B681B68A5
:10201C007A681268B2F8442092B222F4007292B23A
:10202C00A3F84420786806F060F87B681B681846B3
:10203C0003F0B1F8034603F48073B3F5807F0BD142
:10204C007B681B687A681268B2F8442092B222F45A
:10205C00807292B2A3F8442000BF0837BD4680BD01
:10206C0080B582B000AF78600B46FB707B6893F84C
:10207C002832012B01D1022313E07B68012283F863
:10208C0028227B68FA7883F824207B681B68FA780E
:10209C001146184603F058F87B68002283F8282272
:1020AC00002318460837BD4680BD80B584B000AF0C
:1020BC007860084611461A460346FB700B463B8077
:1020CC001346BB700023FB7297F90330002B0BDA1D
:1020DC00FB7803F007035B0128337A681344FB6039
:1020EC00FB6801225A700BE0FB7803F007035B01DD
:1020FC0003F594737A681344FB60FB6800225A70F2
:10210C00FB7803F00703DAB2FB681A703A88FB68B5
:10211C001A61FB68BA78DA70FB685B78002B04D024
:10212C00FB681B789AB2FB68DA81BB78022B02D170
:10213C00FB6800221A717B6893F82832012B01D1BD
:10214C0002230EE07B68012283F828227B681B683F
:10215C00F968184601F0E6FF7B68002283F8282214
:10216C00FB7A18461037BD4680BD80B584B000AFF1
:10217C0078600B46FB7097F90330002B0BDAFB7879
:10218C0003F007035B0128337A681344FB60FB6898
:10219C0001225A700BE0FB7803F007035B0103F597
:1021AC0094737A681344FB60FB6800225A70FB78C6
:1021BC0003F00703DAB2FB681A707B6893F82832D5
:1021CC00012B01D102230EE07B68012283F8282227
:1021DC007B681B68F968184602F092FA7B6800224B
:1021EC0083F82822002318461037BD4680BD80B5E1
:1021FC0086B000AFF8607A603B600B46FB72FB7AEE
:10220C0003F007035B0103F59473FA6813447B61D5
:10221C007B697A685A617B693A689A617B690022AA
:10222C00DA617B6900225A70FB7A03F00703DAB299
:10223C007B691A70FB7A03F00703002B06D1FB684D
:10224C001B687969184602F0F1FB05E0FB681B6816
:10225C007969184602F0EAFB002318461837BD4688
:10226C0080BD80B483B000AF78600B46FB70FB7808
:10227C0003F007037A680A335B01134404331B68C9
:10228C0018460C37BD4680BC704780B586B000AF91
:10229C00F8607A603B600B46FB72FB7A03F0070335
:1022AC005B012833FA6813447B617B697A685A6155
:1022BC007B693A689A617B690022DA617B69012249
:1022CC005A70FB7A03F00703DAB27B691A70FB7A57
:1022DC0003F00703002B06D1FB681B6879691846CD
:1022EC0002F0A4FB05E0FB681B687969184602F054
:1022FC009DFB002318461837BD4680BD80B584B0C1
:10230C0000AF78600B46FB70FB7803F007027B682C
:10231C005B689A4201D9012346E097F90330002B00
:10232C000BDAFB7803F007035B0128337A6813445C
:10233C00FB60FB6801225A7009E0FB785B0103F536
:10234C0094737A681344FB60FB6800225A70FB6834
:10235C0001229A70FB7803F00703DAB2FB681A705B
:10236C007B6893F82832012B01D102231CE07B6897
:10237C00012283F828227B681B68F968184602F052
:10238C000DFEFB7803F00703002B08D17B681A685D
:10239C007B6803F50C731946104602F00BFF7B6843
:1023AC00002283F82822002318461037BD4680BD32
:1023BC0080B584B000AF78600B46FB70FB7803F0FF
:1023CC000F027B685B689A4201D901233AE097F9C6
:1023DC000330002B0BDAFB7803F007035B01283387
:1023EC007A681344FB60FB6801225A700BE0FB789F
:1023FC0003F007035B0103F594737A681344FB60E5
:10240C00FB6800225A70FB6800229A70FB7803F07C
:10241C000703DAB2FB681A707B6893F82832012B39
:10242C0001D102230EE07B68012283F828227B680D
:10243C001B68F968184602F0F3FD7B68002283F8EC
:10244C002822002318461037BD4680BD90B589B0B0
:10245C0000AF786082E27B681B68B3F84430FB8283
:10246C00FB8ADBB203F00F037B757B7D002B40F006
:10247C004281FB8A03F01003002B51D17B681B684F
:10248C001B889BB223F4E14323F070039CB27B685E
:10249C001A686FEA44436FEA53439BB213807B681C
:1024AC0028333B617B681B68B3F850309BB21A46EB
:1024BC003B691B78DB00134402335B007A681268BB
:1024CC00134403F580631B88C3F309023B69DA618B
:1024DC003B695A693B69DB691A443B695A610021C3
:1024EC00786805F0EBFD7B6893F82430DBB2002BA9
:1024FC0000F034823B699B69002B40F02F827B6893
:10250C001B687A6892F82420D2B262F07F02D2B2B1
:10251C0092B2A3F84C207B68002283F824201DE2A1
:10252C007B6803F594733B617B681B681B88FB819C
:10253C00FB8903F40063002B33D07B681B68B3F872
:10254C0050309BB21A463B691B78DB0013440633B0
:10255C005B007A681268134403F580631B88C3F32D
:10256C0009023B69DA617B6818687B6803F50C71BA
:10257C003B69DA883B69DB699BB202F06AFE7B68D7
:10258C001B681B889AB240F68F7313409CB27B6811
:10259C001B6844F0800292B21A80786805F064FDE2
:1025AC00DCE1B7F90E30002B80F2D8817B681B6818
:1025BC001B889AB240F68F7313409CB27B681B68E1
:1025CC0044F0800292B21A807B681B68B3F85030DA
:1025DC009BB21A463B691B78DB00134406335B0045
:1025EC007A681268134403F580631B88C3F30902ED
:1025FC003B69DA613B69DB69002B19D03B695B698C
:10260C00002B15D07B6818683B6959693B69DA88DF
:10261C003B69DB699BB202F01CFE3B695A693B6962
:10262C00DB691A443B695A610021786805F02EFD7C
:10263C007B681B681C467B681B68B3F850309BB2E8
:10264C001C4404F20C431C463B691B69002B0ED145
:10265C0023889BB223F4F8439BB2238023889BB23C
:10266C006FEA43436FEA53439BB223802DE03B69EF
:10267C001B693E2B12D83B691B695B08BB613B692C
:10268C001B6903F00103002B02D0BB690133BB6152
:10269C00BB699BB29B029BB2238016E03B691B6912
:1026AC005B09BB613B691B6903F01F03002B02D163
:1026BC00BB69013BBB61BB699BB29B029BB26FEADE
:1026CC0043436FEA53439BB223807B681B681B8890
:1026DC009BB223F4804323F070039CB284F48053A8
:1026EC009CB284F400539CB27B681A68A24B2343BF
:1026FC009BB2138032E17B681B681A467B7D9B0082
:10270C0013441B88FB81B7F90E30002B80F2D1806B
:10271C007B681B681A467B7D9B0013441B889AB20E
:10272C0040F68F7313409CB27B681B681A467B7D06
:10273C009B00134444F0800292B21A807B7D5B01B3
:10274C0003F594737A6813443B613B691B7B002B44
:10275C0021D17B681B68B3F850309BB21A463B6999
:10276C001B78DB00134406335B007A681268134451
:10277C0003F580631B88C3F30903FB83FB8B002BDE
:10278C0072D07B6818683B6959693B69DA88FB8BA6
:10279C0002F05FFD68E07B681B681A463B691B789A
:1027AC009B0013441B889BB203F48043002B21D065
:1027BC007B681B68B3F850309BB21A463B691B7898
:1027CC00DB00134402335B007A681268134403F590
:1027DC0080631B88C3F30903FB83FB8B002B2AD07C
:1027EC007B6818683B6959693B691A89FB8B02F055
:1027FC0030FD20E07B681B68B3F850309BB21A4662
:10280C003B691B78DB00134406335B007A68126863
:10281C00134403F580631B88C3F30903FB83FB8B11
:10282C00002B08D07B6818683B6959693B695A8949
:10283C00FB8B02F00EFD7B681B681A463B691B780C
:10284C009B0013441B889BB223F4E04323F07003DA
:10285C009CB27B681B681A463B691B789B001A4428
:10286C00464B23439BB213803B69DA69FB8B1A44BA
:10287C003B69DA613B695A69FB8B1A443B695A61C3
:10288C003B699B69002B04D0FA8B3B691B699A420C
:10289C0006D23B691B781946786805F0F7FB08E00F
:1028AC003B6919783B695A693B699B697868FFF702
:1028BC009EFCFB8903F08003002B4FD07B7D5B01DA
:1028CC0028337A6813443B617B681B681A467B7D0E
:1028DC009B0013441B889BB223F4E14323F0700349
:1028EC009CB27B681B681A467B7D9B001A446FEA7E
:1028FC0044436FEA53439BB213807B681B68B3F865
:10290C0050309BB21A463B691B78DB0013440233F0
:10291C005B007A681268134403F580631B88C3F369
:10292C0009023B69DA613B695A693B69DB691A4404
:10293C003B695A613B699B69002B06D13B691B784B
:10294C001946786805F0BAFB08E03B6919783B69D1
:10295C005A693B699B697868FFF797FC7B681B6831
:10296C00B3F844309BB21BB2002BFFF674AD0023BE
:10297C0018462437BD4690BD8080FFFFC080FFFF06
:10298C0080B487B000AFF8607B600B467B81134648
:10299C003B817B8903F080039BB2002B08D07B89A1
:1029AC0003F007035B012833FA6813447B6106E0EC
:1029BC007B895B0103F59473FA6813447B613B8953
:1029CC00002B07D17B6900221A737B689AB27B6952
:1029DC00DA800BE07B6901221A737B689AB27B69FF
:1029EC001A817B681B0C9AB27B695A8100231846AA
:1029FC001C37BD4680BC704780B586B000AF786090
:102A0C007B68002B01D101236CE27B681B6803F00F
:102A1C000103002B00F08780924B5B6803F00C03E2
:102A2C00042B0CD08F4B5B6803F00C03082B12D1DA
:102A3C008C4B5B6803F48033B3F5803F0BD1894B2F
:102A4C001B6803F40033002B6CD07B685B68002B95
:102A5C0068D1012346E27B685B68B3F5803F06D101
:102A6C00804A804B1B6843F4803313602EE07B68F4
:102A7C005B68002B0CD17B4A7A4B1B6823F48033A8
:102A8C001360784A774B1B6823F4802313601DE096
:102A9C007B685B68B3F5A02F0CD1724A714B1B6835
:102AAC0043F4802313606F4A6E4B1B6843F48033EE
:102ABC0013600BE06B4A6B4B1B6823F48033136081
:102ACC00684A684B1B6823F4802313607B685B683F
:102ADC00002B13D0FDF712FE386108E0FDF70EFE57
:102AEC0002463B69D31A642B01D90323FAE15D4BEF
:102AFC001B6803F40033002BF0D014E0FDF7FEFD4F
:102B0C00386108E0FDF7FAFD02463B69D31A642BE5
:102B1C0001D90323E6E1534B1B6803F40033002B6C
:102B2C00F0D100E000BF7B681B6803F00203002BB0
:102B3C0063D04C4B5B6803F00C03002B0BD0494B60
:102B4C005B6803F00C03082B1CD1464B5B6803F449
:102B5C008033002B16D1434B1B6803F00203002B70
:102B6C0005D07B681B69012B01D00123BAE13D49DB
:102B7C003C4B1B6823F0F8027B685B69DB0013435A
:102B8C000B603AE07B681B69002B20D0364B01228E
:102B9C001A60FDF7B3FD386108E0FDF7AFFD0246A2
:102BAC003B69D31A022B01D903239BE12D4B1B68E4
:102BBC0003F00203002BF0D02A492A4B1B6823F0A8
:102BCC00F8027B685B69DB0013430B6015E0264B56
:102BDC0000221A60FDF792FD386108E0FDF78EFDCA
:102BEC0002463B69D31A022B01D903237AE11D4B10
:102BFC001B6803F00203002BF0D17B681B6803F009
:102C0C000803002B3AD07B689B69002B19D0174B1B
:102C1C0001221A60FDF772FD386108E0FDF76EFDC8
:102C2C0002463B69D31A022B01D903235AE10D4BFF
:102C3C005B6A03F00203002BF0D0012000F0A8FA2D
:102C4C001CE00A4B00221A60FDF758FD38610FE0BA
:102C5C00FDF754FD02463B69D31A022B08D9032316
:102C6C0040E100BF0010024000004242800442429A
:102C7C009E4B5B6A03F00203002BE9D17B681B6857
:102C8C0003F00403002B00F0A6800023FB75974B88
:102C9C00DB6903F08053002B0DD1944A934BDB6915
:102CAC0043F08053D361914BDB6903F08053BB60DD
:102CBC00BB680123FB758E4B1B6803F48073002BE0
:102CCC0018D18B4A8A4B1B6843F480731360FDF751
:102CDC0015FD386108E0FDF711FD02463B69D31A7A
:102CEC00642B01D90323FDE0814B1B6803F4807333
:102CFC00002BF0D07B68DB68012B06D17B4A7B4B29
:102D0C001B6A43F0010313622DE07B68DB68002B28
:102D1C000CD1764A754B1B6A23F001031362734A7C
:102D2C00724B1B6A23F0040313621CE07B68DB68A4
:102D3C00052B0CD16D4A6D4B1B6A43F004031362D7
:102D4C006A4A6A4B1B6A43F0010313620BE0674A41
:102D5C00664B1B6A23F001031362644A634B1B6AC4
:102D6C0023F0040313627B68DB68002B15D0FDF79E
:102D7C00C5FC38610AE0FDF7C1FC02463B69D31A79
:102D8C0041F28832934201D90323ABE0574B1B6AC3
:102D9C0003F00203002BEED014E0FDF7AFFC38611A
:102DAC000AE0FDF7ABFC02463B69D31A41F28832CC
:102DBC00934201D9032395E04C4B1B6A03F00203A9
:102DCC00002BEED1FB7D012B05D1484A474BDB692B
:102DDC0023F08053D3617B68DB69002B00F081808A
:102DEC00424B5B6803F00C03082B61D07B68DB69FA
:102DFC00022B46D13F4B00221A60FDF77FFC386155
:102E0C0008E0FDF77BFC02463B69D31A022B01D983
:102E1C00032367E0354B1B6803F00073002BF0D1E4
:102E2C007B681B6AB3F5803F08D130492F4B5B6838
:102E3C0023F400327B689B6813434B602B482B4B6D
:102E4C005B6823F474127B68196A7B685B6A0B43BA
:102E5C0013434360274B01221A60FDF74FFC386186
:102E6C0008E0FDF74BFC02463B69D31A022B01D953
:102E7C00032337E01D4B1B6803F00073002BF0D0CD
:102E8C002FE01C4B00221A60FDF738FC386108E07B
:102E9C00FDF734FC02463B69D31A022B01D90323FC
:102EAC0020E0124B1B6803F00073002BF0D118E0EC
:102EBC007B68DB69012B01D1012313E00B4B5B68B1
:102ECC00FB60FB6803F480327B681B6A9A4206D174
:102EDC00FB6803F470127B685B6A9A4201D0012391
:102EEC0000E0002318461837BD4680BD0010024094
:102EFC00007000406000424280B584B000AF786042
:102F0C0039607B68002B01D10123D0E06A4B1B6830
:102F1C0003F007023B689A4210D26749664B1B6864
:102F2C0023F007023B6813430B60634B1B6803F0F1
:102F3C0007023B689A4201D00123B8E07B681B680A
:102F4C0003F00203002B20D07B681B6803F0040302
:102F5C00002B05D0594A594B5B6843F4E06353602E
:102F6C007B681B6803F00803002B05D0534A534BB6
:102F7C005B6843F4605353605049504B5B6823F0DB
:102F8C00F0027B689B6813434B607B681B6803F003
:102F9C000103002B40D07B685B68012B07D1474BAA
:102FAC001B6803F40033002B15D101237FE07B68F1
:102FBC005B68022B07D1414B1B6803F00073002B9D
:102FCC0009D1012373E03D4B1B6803F00203002B76
:102FDC0001D101236BE03949384B5B6823F00302C4
:102FEC007B685B6813434B60FDF788FBF8600AE075
:102FFC00FDF784FB0246FB68D31A41F288329342F8
:10300C0001D9032353E02D4B5B6803F00C027B6862
:10301C005B689B009A42EBD1274B1B6803F00702BD
:10302C003B689A4210D92449234B1B6823F00702B2
:10303C003B6813430B60204B1B6803F007023B6893
:10304C009A4201D0012332E07B681B6803F0040331
:10305C00002B08D01949194B5B6823F4E0627B689C
:10306C00DB6813434B607B681B6803F00803002B81
:10307C0009D01249114B5B6823F460527B681B69C1
:10308C00DB0013434B6000F021F801460B4B5B68EF
:10309C001B0903F00F030A4AD35C21FA03F3094A14
:1030AC001360094B1B681846FDF7E6FA0023184617
:1030BC001037BD4680BD00BF00200240001002400A
:1030CC0000940008300100200000002090B48AB069
:1030DC0000AF2A4B3C1D0FCB84E80F00284B1B88FC
:1030EC003B800023FB610023BB6100237B62002338
:1030FC007B6100233B62234B5B68FB61FB6903F044
:10310C000C03042B02D0082B03D02DE01E4B3B628A
:10311C002DE0FB699B0C03F00F0307F1280213440D
:10312C0013F8243C7B61FB6903F48033002B13D030
:10313C00144B5B685B0C03F0010307F1280213448A
:10314C0013F8283CBB617B690F4A02FB03F2BB6995
:10315C00B2FBF3F37B6204E07B690C4A02FB03F3E2
:10316C007B627B6A3B6202E0074B3B6200BF3B6ABF
:10317C0018462837BD4690BC704700BF34920008F3
:10318C00449200080010024000127A0000093D0031
:10319C0080B485B000AF78600A4B1B680A4AA2FB6A
:1031AC0003235B0A7A6802FB03F3FB6000BFFB6836
:1031BC005A1EFA60002BF9D100BF1437BD4680BCF3
:1031CC00704700BF30010020D34D621080B586B02F
:1031DC0000AF786000233B610023FB607B681B68B9
:1031EC0003F00103002B7DD00023FB754F4BDB69F3
:1031FC0003F08053002B0DD14C4A4C4BDB6943F050
:10320C008053D361494BDB6903F08053BB60BB68CF
:10321C000123FB75464B1B6803F48073002B18D1FC
:10322C00434A434B1B6843F480731360FDF766FA03
:10323C00386108E0FDF762FA02463B69D31A642B49
:10324C0001D903236DE03A4B1B6803F48073002B08
:10325C00F0D0364B1B6A03F44073FB60FB68002B09
:10326C002ED07B685B6803F44072FB689A4227D0CF
:10327C002E4B1B6A23F44073FB602E4B01221A6009
:10328C002C4B00221A60294AFB681362FB6803F07E
:10329C000103002B14D0FDF731FA38610AE0FDF779
:1032AC002DFA02463B69D31A41F28832934201D976
:1032BC00032336E01D4B1B6A03F00203002BEED0F8
:1032CC001A491A4B1B6A23F440727B685B681343E0
:1032DC000B62FB7D012B05D1144A144BDB6923F0E7
:1032EC008053D3617B681B6803F00203002B08D06A
:1032FC000E490E4B5B6823F440427B689B6813437A
:10330C004B607B681B6803F01003002B08D0074947
:10331C00064B5B6823F480027B68DB6813434B60CD
:10332C00002318461837BD4680BD00BF0010024070
:10333C00007000404004424280B582B000AF78601B
:10334C007B68002B01D101231DE07B6893F83D3095
:10335C00DBB2002B06D17B68002283F83C20786816
:10336C0004F010FC7B68022283F83D207B681A680D
:10337C007B6804331946104600F066FB7B6801221B
:10338C0083F83D20002318460837BD4680BD80B524
:10339C0082B000AF78607B68002B01D101231DE067
:1033AC007B6893F83D30DBB2002B06D17B680022A2
:1033BC0083F83C20786800F015F87B68022283F8CB
:1033CC003D207B681A687B6804331946104600F070
:1033DC003BFB7B68012283F83D200023184608370D
:1033EC00BD4680BD80B483B000AF786000BF0C37A1
:1033FC00BD4680BC7047000080B584B000AF7860DB
:10340C0039607B681B6801223968184600F09CFD06
:10341C007B681B68104A934207D17B681B687A68EB
:10342C001268526C42F400425A647B681B689B68B9
:10343C0003F00703FB60FB68062B07D07B681B6857
:10344C007A681268126842F001021A60002318466A
:10345C001037BD4680BD00BF002C014080B582B046
:10346C0000AF786039607B681B68002239681846A9
:10347C0000F06AFD7B681B681D4A934217D17B687C
:10348C001B681A6A41F211131340002B0FD17B6891
:10349C001B681A6A40F244431340002B07D17B6827
:1034AC001B687A681268526C22F400425A647B687A
:1034BC001B681A6A41F211131340002B0FD17B6861
:1034CC001B681A6A40F244431340002B07D17B68F7
:1034DC001B687A681268126822F001021A607B6815
:1034EC00012283F83D20002318460837BD4680BDD5
:1034FC00002C014080B582B000AF78607B681B68FF
:10350C001B6903F00203022B22D17B681B68DB686A
:10351C0003F00203022B1BD17B681B686FF00202C5
:10352C001A617B6801221A777B681B689B6903F020
:10353C000303002B03D0786800F06AFA05E0786882
:10354C0000F05DFA786800F06CFA7B6800221A775C
:10355C007B681B681B6903F00403042B22D17B6876
:10356C001B68DB6803F00403042B1BD17B681B680E
:10357C006FF004021A617B6802221A777B681B6861
:10358C009B6903F44073002B03D0786800F040FA79
:10359C0005E0786800F033FA786800F042FA7B684E
:1035AC0000221A777B681B681B6903F00803082B41
:1035BC0022D17B681B68DB6803F00803082B1BD146
:1035CC007B681B686FF008021A617B6804221A770B
:1035DC007B681B68DB6903F00303002B03D078685E
:1035EC0000F016FA05E0786800F009FA786800F047
:1035FC0018FA7B6800221A777B681B681B6903F03A
:10360C001003102B22D17B681B68DB6803F01003BE
:10361C00102B1BD17B681B686FF010021A617B6842
:10362C0008221A777B681B68DB6903F44073002B54
:10363C0003D0786800F0ECF905E0786800F0DFF969
:10364C00786800F0EEF97B6800221A777B681B68BB
:10365C001B6903F00103012B0ED17B681B68DB682F
:10366C0003F00103012B07D17B681B686FF001028B
:10367C001A61786803F0D8FC7B681B681B6903F03F
:10368C008003802B0ED17B681B68DB6803F0800302
:10369C00802B07D17B681B686FF080021A617868F9
:1036AC0000F0C3FC7B681B681B6903F04003402BD4
:1036BC000ED17B681B68DB6803F04003402B07D1FD
:1036CC007B681B686FF040021A61786800F0B2F9F1
:1036DC007B681B681B6903F02003202B0ED17B68D1
:1036EC001B68DB6803F02003202B07D17B681B6869
:1036FC006FF020021A61786800F08EFC00BF08376A
:10370C00BD4680BD80B584B000AFF860B9607A600A
:10371C00FB6893F83C30012B01D10223B4E0FB6829
:10372C00012283F83C20FB68022283F83D207B6851
:10373C000C2B00F29F8001A252F823F07D37000879
:10374C00813800088138000881380008BD3700082E
:10375C00813800088138000881380008FF370008DC
:10376C008138000881380008813800083F3800088B
:10377C00FB681B68B968184600F0C8F9FB681B6841
:10378C00FA681268926942F008029A61FB681B6839
:10379C00FA681268926922F004029A61FB681B684D
:1037AC00FA6812689169BA6812690A439A6162E010
:1037BC00FB681B68B968184600F00EFAFB681B68BA
:1037CC00FA681268926942F400629A61FB681B689D
:1037DC00FA681268926922F480629A61FB681B682D
:1037EC00FA6812689169BA68126912020A439A61FE
:1037FC0041E0FB681B68B968184600F057FAFB6893
:10380C001B68FA681268D26942F00802DA61FB6838
:10381C001B68FA681268D26922F00402DA61FB684C
:10382C001B68FA681268D169BA6812690A43DA61CE
:10383C0021E0FB681B68B968184600F0A1FAFB6828
:10384C001B68FA681268D26942F40062DA61FB689C
:10385C001B68FA681268D26922F48062DA61FB682C
:10386C001B68FA681268D169BA68126912020A43B5
:10387C00DA6100E000BFFB68012283F83D20FB68A1
:10388C00002283F83C20002318461037BD4680BD2B
:10389C0080B584B000AF786039607B6893F83C30B9
:1038AC00012B01D10223A6E07B68012283F83C2086
:1038BC007B68022283F83D207B681B689B68FB6059
:1038CC00FB6823F07703FB60FB6823F47F43FB600A
:1038DC007B681B68FA689A603B681B68402B67D052
:1038EC00402B0BD8102B73D0102B02D8002B6FD081
:1038FC0078E0202B6CD0302B6AD073E0702B0DD07D
:10390C00702B04D8502B33D0602B41D06AE0B3F528
:10391C00805F66D0B3F5005F17D063E07B681868F2
:10392C003B6899683B685A683B68DB6800F0EDFAC5
:10393C007B681B689B68FB60FB6843F07703FB604C
:10394C007B681B68FA689A604CE07B6818683B6877
:10395C0099683B685A683B68DB6800F0D6FA7B686C
:10396C001B687A681268926842F480429A6039E067
:10397C007B6818683B6859683B68DB681A4600F03E
:10398C004DFA7B681B685021184600F0A4FA29E018
:10399C007B6818683B6859683B68DB681A4600F01E
:1039AC006BFA7B681B686021184600F094FA19E0EA
:1039BC007B6818683B6859683B68DB681A4600F0FE
:1039CC002DFA7B681B684021184600F084FA09E048
:1039DC007B681A683B681B681946104600F07BFA36
:1039EC0000E000BF7B68012283F83D207B68002249
:1039FC0083F83C20002318461037BD4680BD80B4A8
:103A0C0083B000AF786000BF0C37BD4680BC7047F8
:103A1C0080B483B000AF786000BF0C37BD4680BC6B
:103A2C00704780B483B000AF786000BF0C37BD46E0
:103A3C0080BC704780B483B000AF786000BF0C3797
:103A4C00BD4680BC7047000080B485B000AF786084
:103A5C0039607B681B68FB607B68294A93420BD0FA
:103A6C007B68B3F1804F07D07B68264A934203D022
:103A7C007B68254A934208D1FB6823F07003FB60F6
:103A8C003B685B68FA681343FB607B681C4A934293
:103A9C000BD07B68B3F1804F07D07B68194A9342F7
:103AAC0003D07B68184A934208D1FB6823F4407317
:103ABC00FB603B68DB68FA681343FB60FB6823F030
:103ACC0080023B685B691343FB607B68FA681A6091
:103ADC003B689A687B68DA623B681A687B689A6212
:103AEC007B68074A934203D13B681A697B681A6367
:103AFC007B6801225A6100BF1437BD4680BC7047F9
:103B0C00002C0140000400400008004080B487B045
:103B1C0000AF786039607B681B6A23F001027B6818
:103B2C001A627B681B6A7B617B685B683B617B68A4
:103B3C009B69FB60FB6823F07003FB60FB6823F060
:103B4C000303FB603B681B68FA681343FB607B69EB
:103B5C0023F002037B613B689B687A6913437B61AA
:103B6C007B681C4A93420CD17B6923F008037B6170
:103B7C003B68DB687A6913437B617B6923F0040340
:103B8C007B617B68134A934211D13B6923F48073A8
:103B9C003B613B6923F400733B613B685B693A69A9
:103BAC0013433B613B689B693A6913433B617B68F8
:103BBC003A695A607B68FA689A613B685A687B6814
:103BCC005A637B687A691A6200BF1C37BD4680BC99
:103BDC00704700BF002C014080B487B000AF786004
:103BEC0039607B681B6A23F010027B681A627B6861
:103BFC001B6A7B617B685B683B617B689B69FB60D4
:103C0C00FB6823F4E043FB60FB6823F44073FB6028
:103C1C003B681B681B02FA681343FB607B6923F04B
:103C2C0020037B613B689B681B017A6913437B61B2
:103C3C007B681D4A93420DD17B6923F080037B6125
:103C4C003B68DB681B017A6913437B617B6923F05A
:103C5C0040037B617B68144A934213D13B6923F484
:103C6C0080633B613B6923F400633B613B685B69A8
:103C7C009B003A6913433B613B689B699B003A6923
:103C8C0013433B617B683A695A607B68FA689A61B6
:103C9C003B685A687B689A637B687A691A6200BFD2
:103CAC001C37BD4680BC7047002C014080B487B0E7
:103CBC0000AF786039607B681B6A23F480727B6884
:103CCC001A627B681B6A7B617B685B683B617B6803
:103CDC00DB69FB60FB6823F07003FB60FB6823F07F
:103CEC000303FB603B681B68FA681343FB607B694A
:103CFC0023F400737B613B689B681B027A69134356
:103D0C007B617B681D4A93420DD17B6923F4006370
:103D1C007B613B68DB681B027A6913437B617B69BF
:103D2C0023F480637B617B68144A934213D13B6913
:103D3C0023F480533B613B6923F400533B613B68A4
:103D4C005B691B013A6913433B613B689B691B012F
:103D5C003A6913433B617B683A695A607B68FA683D
:103D6C00DA613B685A687B68DA637B687A691A6245
:103D7C0000BF1C37BD4680BC704700BF002C014003
:103D8C0080B487B000AF786039607B681B6A23F41D
:103D9C0080527B681A627B681B6A3B617B685B683C
:103DAC007B617B68DB69FB60FB6823F4E043FB60B1
:103DBC00FB6823F44073FB603B681B681B02FA68CA
:103DCC001343FB603B6923F400533B613B689B68E6
:103DDC001B033A6913433B617B680F4A934209D139
:103DEC007B6923F480437B613B685B699B017A6947
:103DFC0013437B617B687A695A607B68FA68DA6185
:103E0C003B685A687B681A647B683A691A6200BF1F
:103E1C001C37BD4680BC7047002C014080B487B075
:103E2C0000AFF860B9607A60FB681B6A7B61FB6865
:103E3C001B6A23F00102FB681A62FB689B693B61F9
:103E4C003B6923F0F0033B617B681B013A69134328
:103E5C003B617B6923F00A037B617A69BB6813437E
:103E6C007B61FB683A699A61FB687A691A6200BFE8
:103E7C001C37BD4680BC704780B487B000AFF8607B
:103E8C00B9607A60FB681B6A23F01002FB681A6247
:103E9C00FB689B697B61FB681B6A3B617B6923F454
:103EAC0070437B617B681B037A6913437B613B69BD
:103EBC0023F0A0033B61BB681B013A6913433B61D0
:103ECC00FB687A699A61FB683A691A6200BF1C3711
:103EDC00BD4680BC704780B485B000AF7860396057
:103EEC007B689B68FB60FB6823F07003FB603A689F
:103EFC00FB68134343F00703FB607B68FA689A6026
:103F0C0000BF1437BD4680BC704780B487B000AF8B
:103F1C00F860B9607A603B60FB689B687B617B6989
:103F2C0023F47F437B613B681A027B681A43BB68AE
:103F3C0013437A6913437B61FB687A699A6000BF0B
:103F4C001C37BD4680BC704780B487B000AFF860AA
:103F5C00B9607A60BB6803F01F03012202FA03F315
:103F6C007B61FB681A6A7B69DB431A40FB681A6247
:103F7C00FB681A6ABB6803F01F03796801FA03F344
:103F8C001A43FB681A6200BF1C37BD4680BC7047E1
:103F9C0080B485B000AF786039607B6893F83C30B2
:103FAC00012B01D1022332E07B68012283F83C20F3
:103FBC007B68022283F83D207B681B685B68FB6092
:103FCC007B681B689B68BB60FB6823F07003FB601D
:103FDC003B681B68FA681343FB60BB6823F08003E3
:103FEC00BB603B685B68BA681343BB607B681B684B
:103FFC00FA685A607B681B68BA689A607B68012211
:10400C0083F83D207B68002283F83C20002318466F
:10401C001437BD4680BC704780B483B000AF786065
:10402C0000BF0C37BD4680BC704780B483B000AF76
:10403C00786000BF0C37BD4680BC704784B080B43C
:10404C0083B000AF786007F1140080E80E00002305
:10405C0018460C37BD4680BC04B0704780B485B0A0
:10406C0000AF78604FF43F43FB817B68B3F840307E
:10407C009AB2FB8913439AB27B68A3F840200023C1
:10408C0018461437BD4680BC704780B485B000AF6D
:10409C0078604FF43F43FB817B68B3F840309BB2B0
:1040AC001AB2B7F90E30DB431BB213401BB29AB2F3
:1040BC007B68A3F84020002318461437BD4680BC0B
:1040CC00704780B483B000AF78600B46FB70002360
:1040DC0018460C37BD4680BC704784B080B582B0A2
:1040EC0000AF786007F1140080E80E007B680122B5
:1040FC00A3F840207B680022A3F840207B680022B4
:10410C00A3F844207B680022A3F850207868FFF7BE
:10411C00A5FF002318460837BD46BDE8804004B013
:10412C007047000090B484B000AF78603960002311
:10413C00FB737A683B681B789B0013441B889BB20B
:10414C0023F4EC4323F07003BB813B68DB78032B37
:10415C0019D801A252F823F07541000889410008D2
:10416C00994100087F410008BB8943F40073BB816F
:10417C000DE0BB8943F4C063BB8108E0BB8943F409
:10418C008063BB8103E00123FB7300E000BF7A680E
:10419C003B681B789B001A44BB8943F07F4343F474
:1041AC007F0343F4004343F080039BB213807A688F
:1041BC003B681B789B0013441B889BB223F4E043A1
:1041CC0023F070039AB23B681B789BB213439CB2EA
:1041DC007A683B681B789B001A448A4B23439BB23A
:1041EC0013803B681B7B002B40F012813B685B7893
:1041FC00002B67D07C687B68B3F850309BB21C44B2
:10420C003B681B781B01234403F580631C463B6809
:10421C00DB885B089BB25B009BB223807A683B68AF
:10422C001B789B0013441B889CB2234603F040036D
:10423C00002B14D07A683B681B789B0013441B88B6
:10424C009BB223F4E04323F070039CB27A683B6882
:10425C001B789B001A446C4B23439BB213803B6826
:10426C00DB78012B18D07A683B681B789B001344D1
:10427C001B889BB223F4E04323F040039CB284F0F0
:10428C0020039CB27A683B681B789B001A445D4BF8
:10429C0023439BB213802BE27A683B681B789B000C
:1042AC0013441B889BB223F4E04323F040039CB2DD
:1042BC007A683B681B789B001A44524B23439BB291
:1042CC00138015E27C687B68B3F850309BB21C44B9
:1042DC003B681B781B01234403F581631C463B6838
:1042EC00DB885B089BB25B009BB223807C687B689D
:1042FC00B3F850309BB21C443B681B781B01234421
:10430C0003F20C431C463B681B69002B0ED123881F
:10431C009BB223F4F8439BB2238023889BB26FEAB1
:10432C0043436FEA53439BB223802DE03B681B69E8
:10433C003E2B12D83B681B695B08BB603B681B6952
:10434C0003F00103002B02D0BB680133BB60BB68D8
:10435C009BB29B029BB2238016E03B681B695B09F6
:10436C00BB603B681B6903F01F03002B02D1BB68C9
:10437C00013BBB60BB689BB29B029BB26FEA4343A1
:10438C006FEA53439BB223807A683B681B789B008F
:10439C0013441B889CB2234603F48043002B14D097
:1043AC007A683B681B789B0013441B889BB223F4F0
:1043BC00E04323F070039CB27A683B681B789B0047
:1043CC001A44124B23439BB213807A683B681B78C8
:1043DC009B0013441B889BB223F4804323F070038F
:1043EC009CB284F480539CB284F400539CB27A68DF
:1043FC003B681B789B001A44024B23439BB21380EF
:10440C0076E100BF8080FFFFC080FFFF80C0FFFF10
:10441C007A683B681B789B0013441B889BB223F47F
:10442C00E04323F070039CB27A683B681B789B00D6
:10443C001A44964B23439BB213807C687B68B3F879
:10444C0050309BB21C443B681B781B01234403F582
:10445C0080631C463B681B895B089BB25B009BB26C
:10446C0023807C687B68B3F850309BB21C443B685B
:10447C001B781B01234403F581631C463B685B8955
:10448C005B089BB25B009BB223803B685B78002B84
:10449C0040F088807A683B681B789B0013441B882B
:1044AC009CB2234603F48043002B14D07A683B68FB
:1044BC001B789B0013441B889BB223F4E04323F02E
:1044CC0070039CB27A683B681B789B001A44704B53
:1044DC0023439BB213807A683B681B789B00134480
:1044EC001B889CB2234603F04003002B14D07A683F
:1044FC003B681B789B0013441B889BB223F4E0435E
:10450C0023F070039CB27A683B681B789B001A44BA
:10451C00604B23439BB213807A683B681B789B00EB
:10452C0013441B889BB223F4E04323F070039CB22A
:10453C007A683B681B789B001A44564B23439BB20A
:10454C0013807A683B681B789B0013441B889BB2D2
:10455C0023F4804323F070039CB284F480539CB208
:10456C0084F400539CB27A683B681B789B001A4415
:10457C00494B23439BB213807A683B681B789B00A2
:10458C0013441B889BB223F4E04323F040039CB2FA
:10459C007A683B681B789B001A443F4B23439BB2C1
:1045AC001380A5E07A683B681B789B0013441B883A
:1045BC009CB2234603F48043002B14D07A683B68EA
:1045CC001B789B0013441B889BB223F4E04323F01D
:1045DC0070039CB27A683B681B789B001A442C4B86
:1045EC0023439BB213807A683B681B789B0013446F
:1045FC001B889CB2234603F04003002B14D07A682E
:10460C003B681B789B0013441B889BB223F4E0434C
:10461C0023F070039CB27A683B681B789B001A44A9
:10462C001C4B23439BB213807A683B681B789B001E
:10463C0013441B889BB223F4E04323F070039CB219
:10464C007A683B681B789B001A44114B23439BB23E
:10465C0013803B68DB78012B20D07A683B681B7891
:10466C009B0013441B889BB223F4E04323F04003CC
:10467C009CB284F020039CB27A683B681B789B0048
:10468C001A44054B23439BB213801CE08081FFFF2F
:10469C0080C0FFFFC080FFFF8080FFFF7A683B680F
:1046AC001B789B0013441B889BB223F4E04323F03C
:1046BC0040039CB27A683B681B789B001A440F4BF2
:1046CC0023439BB213807A683B681B789B0013448E
:1046DC001B889BB223F4804323F070039CB27A684E
:1046EC003B681B789B001A44044B23439BB21380FA
:1046FC00FB7B18461037BD4690BC70478080FFFF8F
:10470C0090B482B000AF786039603B681B7B002BA3
:10471C0071D13B685B78002B36D07A683B681B788C
:10472C009B0013441B889CB2234603F04003002BD0
:10473C0014D07A683B681B789B0013441B889BB28F
:10474C0023F4E04323F070039CB27A683B681B7837
:10475C009B001A446B4B23439BB213807A683B68D3
:10476C001B789B0013441B889BB223F4E04323F07B
:10477C0040039CB27A683B681B789B001A44624BDE
:10478C0023439BB2138044E17A683B681B789B00FF
:10479C0013441B889CB2234603F48043002B14D093
:1047AC007A683B681B789B0013441B889BB223F4EC
:1047BC00E04323F070039CB27A683B681B789B0043
:1047CC001A44524B23439BB213807A683B681B7884
:1047DC009B0013441B889BB223F4804323F070038B
:1047EC009CB27A683B681B789B001A44464B234367
:1047FC009BB213800DE13B685B78002B40F0888006
:10480C007A683B681B789B0013441B889CB2234638
:10481C0003F48043002B14D07A683B681B789B0010
:10482C0013441B889BB223F4E04323F070039CB227
:10483C007A683B681B789B001A44344B23439BB229
:10484C0013807A683B681B789B0013441B889CB2CE
:10485C00234603F04003002B14D07A683B681B7886
:10486C009B0013441B889BB223F4E04323F070039A
:10487C009CB27A683B681B789B001A44214B2343FB
:10488C009BB213807A683B681B789B0013441B888F
:10489C009BB223F4E04323F070039CB27A683B682C
:1048AC001B789B001A44174B23439BB213807A68E6
:1048BC003B681B789B0013441B889BB223F48043FA
:1048CC0023F070039CB27A683B681B789B001A44F7
:1048DC000D4B23439BB213807A683B681B789B007B
:1048EC0013441B889BB223F4E04323F040039CB297
:1048FC007A683B681B789B001A44034B23439BB29A
:10490C00138086E0C080FFFF8080FFFF80C0FFFF28
:10491C007A683B681B789B0013441B889CB2234627
:10492C0003F48043002B14D07A683B681B789B00FF
:10493C0013441B889BB223F4E04323F070039CB216
:10494C007A683B681B789B001A44354B23439BB217
:10495C0013807A683B681B789B0013441B889CB2BD
:10496C00234603F04003002B14D07A683B681B7875
:10497C009B0013441B889BB223F4E04323F0700389
:10498C009CB27A683B681B789B001A44254B2343E6
:10499C009BB213807A683B681B789B0013441B887E
:1049AC009BB223F4E04323F070039CB27A683B681B
:1049BC001B789B001A441A4B23439BB213807A68D2
:1049CC003B681B789B0013441B889BB223F4E04389
:1049DC0023F040039CB27A683B681B789B001A4416
:1049EC00114B23439BB213807A683B681B789B0066
:1049FC0013441B889BB223F4804323F070039CB2B6
:104A0C007A683B681B789B001A44074B23439BB284
:104A1C001380002318460837BD4690BC704700BF72
:104A2C0080C0FFFFC080FFFF8080FFFF90B58DB07E
:104A3C0000AF786039603B685B78012B40F0608197
:104A4C003B689A693B681B699A4209D93B681B69A8
:104A5C00BB623B689A69BB6AD21A3B689A6105E0F3
:104A6C003B689B69BB623B6800229A613B681B7B7D
:104A7C00002B19D13B6859693B68DA88BB6A9BB239
:104A8C00786800F0A2FB7C687B68B3F850309BB26E
:104A9C001C443B681B781B01234403F204431C4653
:104AAC00BB6A9BB223800FE17A683B681B789B0042
:104ABC0013441B889BB203F04003002B65D07C6829
:104ACC003B685B78002B48D17C687B68B3F850302E
:104ADC009BB21C443B681B781B01234403F20C4320
:104AEC001C46BB6A002B0ED123889BB223F4F843DF
:104AFC009BB2238023889BB26FEA43436FEA5343F4
:104B0C009BB223803DE0BB6A3E2B10D8BB6A5B088E
:104B1C007B62BB6A03F00103002B02D07B6A01337A
:104B2C007B627B6A9BB29B029BB2238029E0BB6AAF
:104B3C005B097B62BB6A03F01F03002B02D17B6A0B
:104B4C00013B7B627B6A9BB29B029BB26FEA434345
:104B5C006FEA53439BB2238013E03B685B78012BD5
:104B6C000FD17B68B3F850309BB21C443B681B7868
:104B7C001B01234403F20C433B61BB6A9AB23B69B1
:104B8C001A803B685B89FB8563E03B685B78002B94
:104B9C0048D17C687B68B3F850309BB21C443B68AE
:104BAC001B781B01234403F204431C46BB6A002BF5
:104BBC000ED123889BB223F4F8439BB22380238825
:104BCC009BB26FEA43436FEA53439BB223803DE0B1
:104BDC00BB6A3E2B10D8BB6A5B083B62BB6A03F016
:104BEC000103002B02D03B6A01333B623B6A9BB250
:104BFC009B029BB2238029E0BB6A5B093B62BB6AC8
:104C0C0003F01F03002B02D13B6A013B3B623B6A62
:104C1C009BB29B029BB26FEA43436FEA53439BB236
:104C2C00238013E03B685B78012B0FD17C687B6899
:104C3C00B3F850309BB21C443B681B781B012344D7
:104C4C0003F204431C46BB6A9BB223803B681B895E
:104C5C00FB853B685969BB6A9BB2FA8D786800F09A
:104C6C00B4FA3B685B78002B15D17A683B681B78EB
:104C7C009B0013441B889BB223F4E04323F0700386
:104C8C009CB27A683B681B789B001A449A4B23436E
:104C9C009BB2138018E03B685B78012B14D17A68C7
:104CAC003B681B789B0013441B889BB223F4E043A6
:104CBC0023F070039CB27A683B681B789B001A4403
:104CCC008E4B23439BB213807A683B681B789B0006
:104CDC0013441B889BB223F4E04323F040039CB2A3
:104CEC0084F010039CB284F020039CB27A683B6879
:104CFC001B789B001A44824B23439BB2138046E1E2
:104D0C003B689A693B681B699A4209D93B681B69E5
:104D1C00BB623B689A69BB6AD21A3B689A6105E030
:104D2C003B689B69BB623B6800229A613B681B7BBA
:104D3C00002B48D17C687B68B3F850309BB21C4484
:104D4C003B681B781B01234403F20C431C46BB6AD3
:104D5C00002B0ED123889BB223F4F8439BB2238003
:104D6C0023889BB26FEA43436FEA53439BB2238081
:104D7C00F2E0BB6A3E2B10D8BB6A5B08FB61BB6AD6
:104D8C0003F00103002B02D0FB690133FB61FB69CB
:104D9C009BB29B029BB22380DEE0BB6A5B09FB618A
:104DAC00BB6A03F01F03002B02D1FB69013BFB61C3
:104DBC00FB699BB29B029BB26FEA43436FEA53437E
:104DCC009BB22380C8E03B685B78002B48D17C68A1
:104DDC007B68B3F850309BB21C443B681B781B01BA
:104DEC00234403F204431C46BB6A002B0ED12388D8
:104DFC009BB223F4F8439BB2238023889BB26FEAC7
:104E0C0043436FEA53439BB223803DE0BB6A3E2B86
:104E1C0010D8BB6A5B08BB61BB6A03F00103002BB3
:104E2C0002D0BB690133BB61BB699BB29B029BB2D5
:104E3C00238029E0BB6A5B09BB61BB6A03F01F03DB
:104E4C00002B02D1BB69013BBB61BB699BB29B02CE
:104E5C009BB26FEA43436FEA53439BB2238013E048
:104E6C003B685B78012B0FD17C687B68B3F85030C2
:104E7C009BB21C443B681B781B01234403F2044384
:104E8C001C46BB6A9BB223807C683B685B78002B1A
:104E9C004ED17C687B68B3F850309BB21C443B68A5
:104EAC001B781B01234403F20C431C46BB6A002BEA
:104EBC000ED123889BB223F4F8439BB22380238822
:104ECC009BB26FEA43436FEA53439BB2238043E0A8
:104EDC00BB6A3E2B16D8BB6A5B087B61BB6A03F0CE
:104EEC000103002B02D07B6901337B617B699BB290
:104EFC009B029BB223802FE0C080FFFF80C0FFFF8E
:104F0C008080FFFFBB6A5B097B61BB6A03F01F03F8
:104F1C00002B02D17B69013B7B617B699BB29B02BD
:104F2C009BB26FEA43436FEA53439BB2238013E077
:104F3C003B685B78012B0FD17B68B3F850309BB288
:104F4C001C443B681B781B01234403F20C43FB609D
:104F5C00BB6A9AB2FB681A807A683B681B789B0024
:104F6C0013441B889BB223F4804323F070039CB240
:104F7C0084F480539CB284F400539CB27A683B68EE
:104F8C001B789B001A44044B23439BB213800023D1
:104F9C0018463437BD4690BD8080FFFF90B482B078
:104FAC0000AF786039603B685B78002B18D07A686A
:104FBC003B681B789B0013441B889BB223F4E04393
:104FCC0023F040039CB284F010039CB27A683B68D7
:104FDC001B789B001A44114B23439BB2138017E0A0
:104FEC007A683B681B789B0013441B889BB223F4A4
:104FFC00804323F070039CB284F480539CB27A6893
:10500C003B681B789B001A44044B23439BB21380D0
:10501C00002318460837BD4690BC70478080FFFFC0
:10502C0090B482B000AF786039603B681B7B002B7A
:10503C007DD13B685B78002B3DD07A683B681B7850
:10504C009B0013441B889CB2234603F04003002BA7
:10505C0014D07A683B681B789B0013441B889BB266
:10506C0023F4E04323F070039CB27A683B681B780E
:10507C009B001A44314B23439BB213803B68DB7873
:10508C00012B54D07A683B681B789B0013441B8817
:10509C009BB223F4E04323F040039CB284F0200342
:1050AC009CB27A683B681B789B001A44244B2343C0
:1050BC009BB213803BE07A683B681B789B001344DF
:1050CC001B889CB2234603F48043002B14D07A68CF
:1050DC003B681B789B0013441B889BB223F4E04372
:1050EC0023F070039CB27A683B681B789B001A44CF
:1050FC00144B23439BB213807A683B681B789B004C
:10510C0013441B889BB223F4804323F070039CB29E
:10511C0084F480539CB284F400539CB27A683B684C
:10512C001B789B001A44064B23439BB2138000232D
:10513C0018460837BD4690BC704700BFC080FFFFC3
:10514C008080FFFF80C0FFFF80B483B000AF786029
:10515C000B46FB70FB78002B03D17B688022A3F8F5
:10516C004C20002318460C37BD4680BC704780B4D9
:10517C0083B000AF7860002318460C37BD4680BC66
:10518C00704780B483B000AF7860002318460C37AA
:10519C00BD4680BC704780B485B000AF78607B683A
:1051AC00B3F844309BB2FB60FB6818461437BD461D
:1051BC0080BC704780B483B000AF78603960002346
:1051CC0018460C37BD4680BC704780B48DB000AF1C
:1051DC00F860B96011461A460B46FB801346BB803B
:1051EC00BB8801335B083B62FB68FB61BB687B627D
:1051FC00FB885A00FB69134403F58063BB623B6A6E
:10520C00FB621EE07B6A1B78BB617B6A01337B62AD
:10521C007B6A1B789BB21B029BB21A46BB69134379
:10522C007B617B699AB2BB6A1A80BB6A0233BB6230
:10523C00BB6A0233BB627B6A01337B62FB6A013B54
:10524C00FB62FB6A002BDDD100BF3437BD4680BC4E
:10525C00704780B48BB000AFF860B96011461A4645
:10526C000B46FB801346BB80BB885B089BB2BB61C3
:10527C00FB687B61BB68FB61FB885A007B6913444C
:10528C0003F580633B62BB697B621BE03B6A1B8856
:10529C009BB23B613B6A02333B623B69DAB2FB690E
:1052AC001A70FB690133FB613B691B0ADAB2FB69BB
:1052BC001A70FB690133FB613B6A02333B627B6A08
:1052CC00013B7B627B6A002BE0D1BB8803F00103BE
:1052DC009BB2002B07D03B6A1B889BB23B613B699E
:1052EC00DAB2FB691A7000BF2C37BD4680BC704720
:1052FC0080B584B000AF78600B46FB700023FB7365
:10530C007B681B7C002B15D14FF40073022281218A
:10531C00786802F0B4FF7B680122DA624FF4007304
:10532C0002220121786802F0AAFF7B680122C3F8EF
:10533C006C2112E0402302228121786802F09FFF49
:10534C007B680122DA62402302220121786802F094
:10535C0096FF7B680122C3F86C210823032282216B
:10536C00786802F08CFF7B6801221A644FF4077096
:10537C0003F0A6F802467B68C3F8B8227B68D3F822
:10538C00B832002B02D10123FB7326E07B68D3F8E3
:10539C00B832BB607B68D3F8BC321B689847BB68DB
:1053AC000022C3F81422BB680022C3F818227B68C1
:1053BC001B7C002B09D1BB68D3F804224FF400737B
:1053CC000121786803F045F807E0BB68D3F80422A4
:1053DC0040230121786803F03CF8FB7B184610371A
:1053EC00BD4680BD80B584B000AF78600B46FB70C5
:1053FC000023FB738121786802F067FF7B68002231
:10540C00DA620121786802F060FF7B680022C3F841
:10541C006C218221786802F058FF7B6800221A64A4
:10542C007B68D3F8B832002B0ED07B68D3F8BC3233
:10543C005B6898477B68D3F8B832184603F04CF891
:10544C007B680022C3F8B822FB7B18461037BD4698
:10545C0080BD80B586B000AF786039607B68D3F8CA
:10546C00B8323B610023FB730023BB810023FB7527
:10547C003B681B7803F06003002B39D0202B7CD1C8
:10548C003B68DB88002B29D03B681B785BB2002B78
:10549C0011DA7B68D3F8BC329B683A68507839696A
:1054AC003A68D288984739693B68DB881A4678682D
:1054BC0001F0F6F968E03B685A783B6983F8002202
:1054CC003B68DB88DAB23B6983F8012239693B68B7
:1054DC00DB881A46786801F011FA55E07B68D3F83E
:1054EC00BC329B683A6850780022396898474BE088
:1054FC003B685B780A2B17D00B2B29D0002B33D1B0
:10550C007B6893F89C32032B07D107F10C03022222
:10551C001946786801F0C4F92EE03968786801F012
:10552C0055F90223FB7527E07B6893F89C32032B1B
:10553C0007D107F10F0301221946786801F0B0F981
:10554C001AE03968786801F041F90223FB7513E021
:10555C007B6893F89C32032B0DD03968786801F086
:10556C0035F90223FB7506E03968786801F02EF9ED
:10557C000223FB7500E000BF06E03968786801F093
:10558C0025F90223FB7500BFFB7D18461837BD4675
:10559C0080BD80B584B000AF78600B46FB707B6833
:1055AC00D3F8B832FB607B68D3F8C032BB607B6841
:1055BC00D3F8B832002B37D0FA78796813469B00B1
:1055CC0013449B000B441C331B68002B26D0FA7829
:1055DC00796813469B0013449B000B441C331B68D7
:1055EC00FA78B96852010A4438321268B3FBF2F106
:1055FC0002FB01F29B1A002B10D1FA787968134642
:10560C009B0013449B000B441C3300221A60F97856
:10561C0000230022786802F0F9FE03E0FB68002208
:10562C00C3F81422002300E0022318461037BD46AD
:10563C0080BD80B584B000AF78600B46FB707B6892
:10564C00D3F8B832FB60FB781946786802F024FF77
:10565C000246FB68C3F80C227B68D3F8B832002BE7
:10566C000DD07B68D3F8BC32DB68FA68D2F8040240
:10567C00FA6802F5037211469847002300E00223F2
:10568C0018461037BD4680BD80B584B000AF786039
:10569C007B68D3F8B832FB607B68D3F8BC32002B44
:1056AC0015D0FB6893F80032FF2B10D07B68D3F831
:1056BC00BC329B68FA6892F80002F968FA6892F8B2
:1056CC00012292B29847FB68FF2283F80022002344
:1056DC0018461037BD4680BD80B483B000AF7860EB
:1056EC007B6843221A80034B18460C37BD4680BC9E
:1056FC00704700BF9000002080B483B000AF78608A
:10570C007B6843221A80034B18460C37BD4680BC7D
:10571C00704700BF4C00002080B483B000AF7860AD
:10572C007B6843221A80034B18460C37BD4680BC5D
:10573C00704700BFD400002080B483B000AF786005
:10574C007B680A221A80034B18460C37BD4680BC76
:10575C00704700BF0800002080B485B000AF7860AF
:10576C0039600223FB733B68002B05D07B683A68D9
:10577C00C3F8BC220023FB73FB7B18461437BD46D1
:10578C0080BC704780B487B000AFF860B960134636
:10579C00FB80FB68D3F8B8327B617B69BA68C3F8CD
:1057AC000822FA887B69C3F81022002318461C379C
:1057BC00BD4680BC704780B485B000AF786039605E
:1057CC007B68D3F8B832FB60FB683A68C3F80422F4
:1057DC00002318461437BD4680BC704780B584B092
:1057EC0000AF78607B68D3F8B832FB607B68D3F885
:1057FC00B832002B1CD0FB68D3F81432002B15D117
:10580C00FB680122C3F81422FB68D3F810227B68D2
:10581C001A63FB68D3F80822FB68D3F810329BB2EA
:10582C008121786802F0F2FD002302E0012300E000
:10583C00022318461037BD4680BD80B584B000AF3A
:10584C0078607B68D3F8B832FB607B68D3F8B832E9
:10585C00002B17D07B681B7C002B09D1FB68D3F87D
:10586C0004224FF400730121786802F0F2FD07E086
:10587C00FB68D3F8042240230121786802F0E9FD8B
:10588C00002300E0022318461037BD4680BD80B5CA
:10589C0084B000AFF860B9601346FB71FB68002B55
:1058AC0001D102231AE0FB68D3F8B432002B03D0E9
:1058BC00FB680022C3F8B422BB68002B03D0FB6842
:1058CC00BA68C3F8B022FB68012283F89C22FB68FB
:1058DC00FA791A70F86802F05DFC0023184610374C
:1058EC00BD4680BD80B485B000AF786039600023C0
:1058FC00FB733B68002B06D07B683A68C3F8B42274
:10590C000023FB7301E00223FB73FB7B1846143767
:10591C00BD4680BC704780B582B000AF78607868B7
:10592C0002F092FC002318460837BD4680BD80B4B7
:10593C0083B000AF7860002318460C37BD4680BC9E
:10594C00704780B584B000AF78600B46FB700223C3
:10595C00FB737B68D3F8B432002B0CD07B68D3F884
:10596C00B4321B68FA781146786898470346002BC6
:10597C0001D10023FB73FB7B18461037BD4680BD5D
:10598C0080B582B000AF78600B46FB707B68D3F8B3
:10599C00B4325B68FA781146786898470023184649
:1059AC000837BD4680BD80B582B000AF78603960E5
:1059BC007B6803F52A733968184600F0CBFE7B68C8
:1059CC000122C3F894227B68B3F8AE321A467B6886
:1059DC00C3F898227B6893F8A83203F01F03012BBD
:1059EC000CD0012B02D3022B10D017E07B6803F5EF
:1059FC002A731946786800F0CBF91AE07B6803F536
:105A0C002A731946786800F02DFA12E07B6803F5CA
:105A1C002A731946786800F06BFA0AE07B6893F8F1
:105A2C00A83223F07F03DBB21946786802F06CFCD5
:105A3C0000BF002318460837BD4680BD80B586B030
:105A4C0000AFF8600B467A60FB72FB7A002B4BD1EF
:105A5C00FB6803F5AA737B61FB68D3F89432032BC4
:105A6C0034D17B69DA687B691B699A4219D97B69E5
:105A7C00DA687B691B69D21A7B69DA607B69DA6840
:105A8C007B691B699A4203D27B69DB689BB202E09B
:105A9C007B691B699BB21A467968F86800F04CFF69
:105AAC0038E0FB68D3F8B4321B69002B0AD0FB68D2
:105ABC0093F89C32032B05D1FB68D3F8B4321B69E5
:105ACC00F8689847F86800F049FF23E0FB68D3F8C2
